:020000040800F2
:1000000000000220BD150108CD050108D505010835
:10001000DD050108E5050108ED0501080000000007
:10002000000000000000000000000000A1C5010861
:10003000F505010800000000F1C7010845B60108F8
:100040000D1601080D1601080D1601080D16010800
:100050000D1601080D1601080D1601080D160108F0
:100060000D1601080D1601080D1601080D160108E0
:10007000050601080D1601080D16010819060108EC
:100080000D1601082D0601080D1601080D160108B0
:10009000410601080D1601080D1601080D1601088C
:1000A0000D1601080D1601080D1601080D160108A0
:1000B00055060108690601087D0601080D160108AC
:1000C0000D1601080D1601080D1601080D16010880
:1000D0000D16010891060108A5060108B9060108D8
:1000E0000D1601080D1601080D1601080D16010860
:1000F0000D1601080D1601080D1601080D16010850
:100100000D1601080D1601080D1601080D1601083F
:10011000CD0601080D1601080D160108E1060108BB
:10012000F50601080D1601080D1601080D16010847
:100130000D1601080D1601080D1601080D1601080F
:100140000D160108090701080D1601081D07010811
:100150000D1601080D160108310701080D160108DA
:100160000D1601080D1601080D1601080D160108DF
:100170000D1601080D1601080D16010800000000FB
:080180000D1601080D1601081F
:10019000034613F8012B002AFBD1181A01387047C7
:1001A00001F0FF01102A2BDB10F0070F08D010F828
:1001B000013B013A8B422DD010F0070F42B3F6D12C
:1001C000F0B441EA012141EA014122F007047FF045
:1001D00000070023F0E80256083C85EA010586EA9C
:1001E000010685FA47F5A3FA87F586FA47F6A5FAD8
:1001F00087F68EB9EED1F0BC01F0FF0102F00702E4
:1002000032B110F8013B013A83EA010313B1F8D18E
:100210000020704701387047002D06BF354603386F
:10022000073815F0010F07D1013015F4807F02BFA8
:10023000013015F4C03F0130F0BC0138704700BFF9
:1002400081F0004102E000BF83F0004330B54FEA87
:1002500041044FEA430594EA050F08BF90EA020FF4
:100260001FBF54EA000C55EA020C7FEA645C7FEA87
:10027000655C00F0E2804FEA5454D4EB5555B8BFAA
:100280006D420CDD2C4480EA020281EA030382EA1B
:10029000000083EA010180EA020281EA0303362DAD
:1002A00088BF30BD11F0004F4FEA01314FF4801C80
:1002B0004CEA113102D0404261EB410113F0004F92
:1002C0004FEA03334CEA133302D0524263EB430349
:1002D00094EA050F00F0A780A4F10104D5F1200EE7
:1002E0000DDB02FA0EFC22FA05F2801841F1000142
:1002F00003FA0EF2801843FA05F359410EE0A5F116
:1003000020050EF1200E012A03FA0EFC28BF4CF046
:10031000020C43FA05F3C01851EBE37101F00045FC
:1003200007D54FF0000EDCF1000C7EEB00006EEB09
:100330000101B1F5801F1BD3B1F5001F0CD3490893
:100340005FEA30004FEA3C0C04F101044FEA4452EA
:1003500012F5800F80F09A80BCF1004F08BF5FEA71
:10036000500C50F1000041EB045141EA050130BD51
:100370005FEA4C0C404141EB0101013C28BFB1F563
:10038000801FE9D291F0000F04BF01460020B1FAAE
:1003900081F308BF2033A3F10B03B3F120020CDA81
:1003A0000C3208DD02F1140CC2F10C0201FA0CF05F
:1003B00021FA02F10CE002F11402D8BFC2F1200CC4
:1003C00001FA02F120FA0CFCDCBF41EA0C0190407A
:1003D000E41AA2BF01EB0451294330BD6FEA0404C3
:1003E0001F3C1CDA0C340EDC04F11404C4F12002AE
:1003F00020FA04F001FA02F340EA030021FA04F3C0
:1004000045EA030130BDC4F10C04C4F1200220FA16
:1004100002F001FA04F340EA0300294630BD21FA54
:1004200004F0294630BD94F0000F83F4801306BF1A
:1004300081F480110134013D4EE77FEA645C18BF0E
:100440007FEA655C29D094EA050F08BF90EA020FA5
:1004500005D054EA000C04BF1946104630BD91EA9D
:10046000030F1EBF0021002030BD5FEA545C05D1A0
:100470004000494128BF41F0004130BD14F58004DF
:100480003CBF01F5801130BD01F0004545F0FE4153
:1004900041F470014FF0000030BD7FEA645C1ABF88
:1004A000194610467FEA655C1CBF0B46024650EABF
:1004B000013406BF52EA033591EA030F41F40021EB
:1004C00030BD00BF90F0000F04BF0021704730B571
:1004D0004FF4806404F132044FF000054FF0000146
:1004E00050E700BF90F0000F04BF0021704730B507
:1004F0004FF4806404F1320410F0004548BF4042DC
:100500004FF000013EE700BF42004FEAE2014FEA30
:1005100031014FEA02701FBF12F07F4393F07F4F0B
:1005200081F06051704732F07F4208BF704793F00E
:100530007F4F04BF41F40021704730B54FF4607421
:1005400001F0004521F000411CE700BF50EA010224
:1005500008BF704730B54FF000050AE050EA0102CD
:1005600008BF704730B511F0004502D5404261EB3D
:1005700041014FF4806404F132045FEA915C3FF47E
:10058000D8AE4FF003025FEADC0C18BF03325FEA1B
:10059000DC0C18BF033202EBDC02C2F1200300FACC
:1005A00003FC20FA02F001FA03FE40EA0E0021FAF1
:1005B00002F11444BDE600BF70B54FF0FF0C4CF4DF
:1005C000E06C1CEA11541DBF1CEA135594EA0C0F91
:1005D00095EA0C0F00F0DEF82C4481EA030621EACC
:1005E0004C5123EA4C5350EA013518BF52EA033507
:1005F00041F4801143F4801338D0A0FB02CE4FF0B9
:100600000005E1FB02E506F00042E0FB03E54FF0E8
:100610000006E1FB03569CF0000F18BF4EF0010EE0
:10062000A4F1FF04B6F5007F64F5407404D25FEADC
:100630004E0E6D4146EB060642EAC62141EA55518F
:100640004FEAC52040EA5E504FEACE2EB4F1FD0CD1
:1006500088BFBCF5E06F1ED8BEF1004F08BF5FEA4F
:10066000500E50F1000041EB045170BD06F0004601
:1006700046EA010140EA020081EA0301B4EB5C04AE
:10068000C2BFD4EB0C0541EA045170BD41F48011A6
:100690004FF0000E013C00F3AB8014F1360FDEBFCB
:1006A000002001F0004170BDC4F10004203C35DAA7
:1006B0000C341BDC04F11404C4F1200500FA05F32A
:1006C00020FA04F001FA05F240EA020001F00042CB
:1006D00021F0004110EBD37021FA04F642EB060141
:1006E0005EEA430E08BF20EAD37070BDC4F10C046B
:1006F000C4F1200500FA04F320FA05F001FA04F22F
:1007000040EA020001F0004110EBD37041F100011A
:100710005EEA430E08BF20EAD37070BDC4F1200525
:1007200000FA05F24EEA020E20FA04F301FA05F28D
:1007300043EA020321FA04F001F0004121FA04F235
:1007400020EA020000EBD3705EEA430E08BF20EA05
:10075000D37070BD94F0000F0FD101F0004640003F
:1007600041EB010111F4801F08BF013CF7D041EAC1
:10077000060195F0000F18BF704703F000465200C5
:1007800043EB030313F4801F08BF013DF7D043EA96
:100790000603704794EA0C0F0CEA135518BF95EA4C
:1007A0000C0F0CD050EA410618BF52EA4306D1D1D3
:1007B00081EA030101F000414FF0000070BD50EAF2
:1007C000410606BF1046194652EA430619D094EA7C
:1007D0000C0F02D150EA013613D195EA0C0F05D166
:1007E00052EA03361CBF104619460AD181EA0301BA
:1007F00001F0004141F0FE4141F470014FF0000072
:1008000070BD41F0FE4141F4780170BD70B54FF00C
:10081000FF0C4CF4E06C1CEA11541DBF1CEA13558C
:1008200094EA0C0F95EA0C0F00F0A7F8A4EB05046E
:1008300081EA030E52EA03354FEA013100F0888065
:100840004FEA03334FF0805545EA131343EA12632E
:100850004FEA022245EA111545EA10654FEA0026E3
:100860000EF000419D4208BF964244F1FD0404F59C
:10087000407402D25B084FEA3202B61A65EB0305F8
:100880005B084FEA32024FF480104FF4002CB6EBB5
:10089000020E75EB030E22BFB61A754640EA0C0035
:1008A0005B084FEA3202B6EB020E75EB030E22BF75
:1008B000B61A754640EA5C005B084FEA3202B6EBB6
:1008C000020E75EB030E22BFB61A754640EA9C0075
:1008D0005B084FEA3202B6EB020E75EB030E22BF45
:1008E000B61A754640EADC0055EA060E18D04FEA03
:1008F000051545EA16754FEA06164FEAC30343EAA3
:1009000052734FEAC2025FEA1C1CC0D111F4801F6F
:100910000BD141EA00014FF000004FF0004CB6E768
:1009200011F4801F04BF01430020B4F1FD0C88BF07
:10093000BCF5E06F3FF6AFAEB5EB030C04BFB6EB12
:10094000020C5FEA500C50F1000041EB045170BD05
:100950000EF0004E4EEA113114EB5C04C2BFD4EB32
:100960000C0541EA045170BD41F480114FF0000EB6
:10097000013C90E645EA060E8DE60CEA135594EA32
:100980000C0F08BF95EA0C0F3FF43BAF94EA0C0F35
:100990000AD150EA01347FF434AF95EA0C0F7FF4AA
:1009A00025AF104619462CE795EA0C0F06D152EAFE
:1009B00003353FF4FDAE1046194622E750EA4106E2
:1009C00018BF52EA43067FF4C5AE50EA41047FF4F3
:1009D0000DAF52EA43057FF4EBAE12E74FF0FF3C58
:1009E00006E000BF4FF0010C02E000BF4FF0010C29
:1009F0004DF804CD4FEA410C7FEA6C5C4FEA430CA2
:100A000018BF7FEA6C5C1BD001B050EA410C0CBFF0
:100A100052EA430C91EA030F02BF90EA020F002052
:100A2000704710F1000F91EA030F58BF994208BFB9
:100A300090422CBFD8176FEAE37040F00100704776
:100A40004FEA410C7FEA6C5C02D150EA013C07D1CD
:100A50004FEA430C7FEA6C5CD6D152EA033CD3D018
:100A60005DF8040B704700BF8446104662468C4612
:100A70001946634600E000BF01B5FFF7B7FF002845
:100A800048BF10F1000F01BD4DF808EDFFF7F4FF6E
:100A90000CBF012000205DF808FB00BF4DF808EDF9
:100AA000FFF7EAFF34BF012000205DF808FB00BF1C
:100AB0004DF808EDFFF7E0FF94BF012000205DF83E
:100AC00008FB00BF4DF808EDFFF7CEFF94BF0120F3
:100AD00000205DF808FB00BF4DF808EDFFF7C4FFEC
:100AE00034BF012000205DF808FB00BF4FEA410C35
:100AF0007FEA6C5C02D150EA013C0AD14FEA430C18
:100B00007FEA6C5C02D152EA033C02D14FF0000054
:100B100070474FF0010070474FEA410212F5001292
:100B200015D211D56FF47873B3EB625212D94FEA34
:100B3000C12343F0004343EA505311F0004F23FA1E
:100B400002F018BF404270474FF00000704750EA73
:100B5000013005D111F0004008BF6FF00040704730
:100B60004FF00000704700BF4A0011D212F500128A
:100B700011D20DD56FF47873B3EB62520ED44FEAF5
:100B8000C12343F0004343EA505323FA02F0704775
:100B90004FF00000704750EA013002D14FF0FF30B3
:100BA00070474FF0000070474FEA4102B2F1E04356
:100BB00024BFB3F5001CDCF1FE5C0DD901F0004C44
:100BC0004FEAC0024CEA5070B2F1004F40EB830094
:100BD00008BF20F00100704711F0804F21D113F1C0
:100BE0003872BCBF01F00040704741F480114FEAF9
:100BF0005252C2F11802C2F1200C10FA0CF320FA82
:100C000002F018BF40F001004FEAC1234FEAD3239E
:100C100003FA0CFC40EA0C0023FA02F34FEA430308
:100C2000CCE77FEA625307D150EA01331EBF4FF091
:100C3000FE4040F44000704701F0004040F0FE40AC
:100C400040F40000704700BF53B94AB9002908BFFB
:100C500000281CBF4FF0FF314FF0FF3000F00CB800
:100C6000ADF1080C6DE904CE24F0F6FFDDF804E0E8
:100C7000DDE9022304B07047704700BF0348044B0E
:100C8000834202D0034B03B118477047A0050020F0
:100C9000A0050020000000000548064B1B1AD90FD4
:100CA00001EBA301491002D0034B03B11847704771
:100CB000A0050020A00500200000000010B5064C93
:100CC000237843B9FFF7DAFF044B13B10448AFF3BD
:100CD00000800123237010BDA0050020000000004B
:100CE000505F020808B5054B1BB105490548AFF335
:100CF0000080BDE80840FFF7CFBF00BF0000000044
:100D0000A4050020505F020880B584B000AF3B46C8
:100D100000221A605A609A60DA60284B284A1A60EA
:100D2000264B4FF400325A60244B00229A60234B2A
:100D300001221A61214B01221A76204B002283F8EE
:100D400020201E4B0022DA621C4B1E4A9A621B4B6B
:100D50000022DA60194B0222DA61184B012283F873
:100D60003020164B01225A61144811F031F9034624
:100D7000002B01D00FF07CFB0C233B6001237B6038
:100D80000723BB603B4619460C4811F097FA03460F
:100D9000002B01D00FF06CFB0D233B6002237B6026
:100DA0003B461946054811F089FA0346002B01D04D
:100DB0000FF05EFB00BF1037BD4680BDBC050020B4
:100DC000002001400100000F80B58AB000AF7860BC
:100DD00007F1140300221A605A609A60DA601A61FF
:100DE0007B681B682F4A934257D100233B612E4BEF
:100DF0005B6C2D4A43F4807353642B4B5B6C03F4A0
:100E000080733B613B690023FB60274B1B6B264AC9
:100E100043F004031363244B1B6B03F00403FB60D8
:100E2000FB680C237B610323BB610023FB6107F19B
:100E3000140319461D4813F029FB1D4B1D4A1A6067
:100E40001B4B00225A601A4B00229A60184B00225A
:100E5000DA60174B4FF480621A61154B4FF4006251
:100E60005A61134B4FF400529A61114B4FF4807248
:100E7000DA610F4B00221A620D4B00225A620C48B5
:100E800012F02EFC0346002B01D00FF0F1FA7B6824
:100E9000074A9A63064A7B68936300BF2837BD46BA
:100EA00080BD00BF00200140003802400008024021
:100EB000040600201064024080B500AF174B184AAA
:100EC0001A60164B0C225A60144B00229A60134B86
:100ED0000022DA60114B4FF400321A610F4B4FF4CD
:100EE00000125A610D4B00221A760C4B00225A76E2
:100EF0000A4B00229A76094B0022DA76074B002231
:100F00001A77064B00225A77044811F077FC034603
:100F1000002B01D00FF0ACFA00BF80BD64060020AA
:100F20000064004080B500AF174B184A1A60164B9A
:100F30000C225A60144B00229A60134B0022DA6094
:100F4000114B4FF400321A610F4B4FF400125A61EB
:100F50000D4B00221A760C4B00225A760A4B0022C7
:100F60009A76094B0022DA76074B00221A77064B55
:100F700000225A77044811F041FC0346002B01D0AF
:100F80000FF076FA00BF80BD8C060020006800409C
:100F900080B58CB000AF786007F11C0300221A60A6
:100FA0005A609A60DA601A617B681B684A4A934209
:100FB0003DD14A4B1B680133484A1360474B1B68BD
:100FC000012B0DD10023BB61454B1B6C444A43F000
:100FD00000731364424B1B6C03F00073BB61BB696D
:100FE00000237B613E4B1B6B3D4A43F008031363B8
:100FF0003B4B1B6B03F008037B617B690323FB61A5
:1010000002233B6200237B620323BB620923FB6252
:1010100007F11C031946334813F038FA0022052162
:10102000142012F033FB142012F04CFB50E07B68CC
:101030001B682D4A93424BD100233B61284B1B6C0C
:10104000274A43F080631364254B1B6C03F08063D5
:101050003B613B69214B1B680133204A13601F4BE6
:101060001B68012B0DD10023FB601D4B1B6C1C4A20
:1010700043F0007313641A4B1B6C03F00073FB60A6
:10108000FB680023BB60164B1B6B154A43F0020341
:101090001363134B1B6B03F00203BB60BB684FF47D
:1010A0004053FB6102233B6200237B620323BB624C
:1010B0000923FB6207F11C0319460C4813F0E6F9FB
:1010C00000220521412012F0E1FA412012F0FAFA43
:1010D00000BF3037BD4680BD00640040B40600202C
:1010E00000380240000C024000680040000402404A
:1010F00080B58AB000AF7860A94B1B6807F1180172
:101100004FF4FA7218461BF051FF0346012B40F0D2
:10111000298107233B724FF00003FB604FF000036F
:101120003B614FF000037B619E4B01221A703B7FB5
:101130001BB21B021AB27B7F1BB213431BB207EE1A
:10114000903AB8EEE77ADFED986AC7EE267AC7EDF7
:10115000037A97F820301BB21B021AB297F821309D
:101160001BB213431BB207EE903AB8EEE77ADFEDFD
:101170008E6AC7EE267AC7ED057A8C4B1B78022B58
:1011800003D08A4B1B78052B1BD1894BD3ED017AF9
:10119000B6EE007AF4EEC77AF1EE10FA09D4854B78
:1011A000D3ED017AB6EE007AF4EEC77AF1EE10FADA
:1011B00007D597ED037AF0EE006AC7EE267AC7ED01
:1011C000037ABA7F774BDA71FB7F1A4613461B010D
:1011D0009B1A5B0007EE903AB8EEE77ADFED766A8D
:1011E000C7EE267A6F4BC3ED037A97F8223003F0EF
:1011F0000103DAB26B4B9A7197F822305B09DBB2CC
:1012000003F00103DAB2674BDA7097F822301B095A
:10121000DBB203F00103DAB2624B1A7197F82230A5
:10122000DB08DBB203F00103DAB25E4B9A7097F889
:1012300022309B08DBB203F00103DAB2594B5A703B
:10124000584BDA78574B1B791344DAB2554B5B781D
:101250001344DAB2534B9B781344DAB2514B5A71B0
:10126000504B5B79002B03D04E4B9B79012B06D161
:101270004FF000037B617B693B613B69FB60494B3D
:10128000DB79AB2B0FD14D4BD3ED037A9FED4C7A2D
:10129000F4EEC77AF1EE10FA05DD4FF00003FB60C3
:1012A0004FF000033B6197F82330802B0FD997F85C
:1012B0002330A3F5807213461B019B1A5B0007EED7
:1012C000903AF8EEE77A374BC3ED027A0DE097F8E3
:1012D00023301A4613461B019B1A5B0007EE903A17
:1012E000F8EEE77A2F4BC3ED027A012387F8273017
:1012F000D7ED037AF5EE407AF1EE10FA14D1D7ED7E
:10130000047AF5EE407AF1EE10FA0DD1D7ED057AB8
:10131000F5EE407AF1EE10FA06D12A4B1B78013334
:10132000DAB2284B1A7002E0264B00221A70254BC5
:101330001B780A2B05D9002387F82730214B0A2276
:101340001A701E4B5B7C012B7FF4D6AE97F82730CA
:10135000012B7FF4D1AE07F108030021184601F0FC
:1013600077FDC9E60F4B00221A700E4B4FF00002BA
:101370009A600C4B4FF00002DA600A4B00229A711F
:10138000084B0022DA70074B00221A71054B00222D
:101390005A70044B00229A70024B00225A71ABE63D
:1013A000A41900200000002000007A44DC1700206F
:1013B00088030020C00300200000C842440200202F
:1013C0000000C441B8060020B0B59CB000AF786002
:1013D000002387F84A30002387F86F30012387F80D
:1013E0006E30002387F86D304FF00003BB6600239A
:1013F00087F86730BA4BBB65BA4B1B6807F14A01E7
:101400004FF0FF3218461BF0D1FD0346012BF3D1FC
:10141000012387F8663097F84A30184602F0B6FF85
:1014200097F86F30412B0AD197F84A30412B06D1FB
:1014300097F86730002B02D1012387F86730042327
:1014400087F838304FF00003FB634FF000033B6434
:101450004FF000037B64002387F8573097F84A3039
:10146000184600F02FFD03461A4697F857301344EC
:1014700087F8573097F84A30184600F079FC034651
:101480001A4697F85730134487F8573097F8573073
:10149000002B40F0608497F84A30184602F0D4FFE1
:1014A00097F84A304B2B03D1022387F86E300EE0B9
:1014B00097F84A304A2B03D1012387F86E3006E0B3
:1014C00097F84A30492B02D1002387F86E30864ABC
:1014D00097F86E30537097F84A30403B87F8563093
:1014E00097F85630002B10D097F85630082B0CD8B0
:1014F00097F86F30A3F1400297F856309A4208D11E
:1015000097F8563087F86D3003E097F8563087F833
:101510006D3097F84A3087F86F30734A97F86D301E
:101520001370724B3B6597F86D30013B192B00F23D
:10153000E38001A252F823F0A1150008C9150008A4
:10154000F715000811160008391600086316000880
:1015500093160008A5160008F9160008F9160008E9
:10156000F9160008F9160008F9160008F91600081F
:10157000F9160008F9160008F9160008F91600080F
:10158000F9160008F9160008F9160008F9160008FF
:10159000F9160008F9160008F9160008CB1600081D
:1015A000534BB3F9083007EE903AB8EEE77ADFED27
:1015B000516AC7EE267AC7ED0F7A4FF000033B64FD
:1015C0004FF000037B649BE0494BB3F9083007EE12
:1015D000903AB8EEE77ADFED476AC7EE267AC7EDB4
:1015E0000F7A4FF000033B64D7ED147AF1EE677A7F
:1015F000C7ED117A84E04FF00003FB634FF0000366
:101600003B64D7ED147AF1EE677AC7ED117A77E093
:10161000374BB3F908305B4207EE903AB8EEE77A01
:10162000DFED346AC7EE267AC7ED0F7A4FF000037C
:101630003B643B6D7B6463E02D4BB3F908305B4248
:1016400007EE903AB8EEE77ADFED2A6AC7EE267A1F
:10165000C7ED0F7A4FF000033B644FF000037B644B
:101660004EE0234BB3F908305B4207EE903AB8EEF8
:10167000E77ADFED206AC7EE267AC7ED0F7A4FF0E2
:1016800000033B64D7ED147AF1EE677AC7ED117A67
:1016900036E04FF00003FB634FF000033B643B6D0B
:1016A0007B642DE0124BB3F9083007EE903AB8EEA8
:1016B000E77ADFED106AC7EE267AC7ED0F7A4FF0B2
:1016C00000033B643B6D7B641AE04FF00003FB6357
:1016D0004FF000033B644FF000037B6410E000BF59
:1016E000D80000209C190020BC060020DB0F493FD9
:1016F0004402002000007A44002387F8663000BFCF
:1017000097F86630002B0FD097F86730002B0BD07E
:1017100007F138030021184601F09AFB0346002B1D
:1017200002D0002387F8673097F84A30582B0ED143
:10173000854BB3F908309BB264339BB21AB2824B2B
:101740001A81BB6D1B69C8210120984711E097F8E9
:101750004A30592B0DD17C4BB3F908309BB2643B16
:101760009BB21AB2784B1A81BB6D1B69C82101204C
:10177000984797F84A30612B0DD1744BFB64FB6C92
:101780009B689847FB6CDB689847BB6D1B69C82159
:1017900001209847A0E097F84A30622B0FD16A4B9E
:1017A0005B7C002B0CBF01230023DBB21A46664B87
:1017B0005A74BB6D1B69C821012098478CE097F8CB
:1017C0004A30632B08D1604B01221A74BB6D1B6930
:1017D000C821012098477FE097F84A30642B3AD11E
:1017E000594BDB7C012B0BD1594B00221A70564B05
:1017F0000022DA74BB6D1B69C821012098476BE099
:10180000534B1B780133DAB2514B1A70504B1B7893
:10181000032B61D1002387F865300CE097F8653021
:101820004C4A52F82330184605F035FD97F86530DC
:10183000013387F86530484B9B7897F865209A42CA
:10184000ECD3414B0122DA74BB6D1B694FF47A7102
:101850000120984740E097F84A30652B0FD13A4B6A
:101860005B7D002B0CBF01230023DBB21A46364BF5
:101870005A75BB6D1B69C821012098472CE097F869
:101880004A30662B11D1304B93F82030002B0CBF1F
:1018900001230023DBB21A462B4B83F82020BB6DBB
:1018A0001B69C8210120984716E097F84A30672B3A
:1018B00007D10BF02DFFBB6D1B69C8210120984794
:1018C0000AE097F84A30682B06D10BF011FFBB6D88
:1018D0001B69C8210120984797F84A307B2B03D118
:1018E0001E4B01221A7006E097F84A307D2B02D178
:1018F0001A4B02221A70194B1B78012B16D1184B68
:101900001B78184AA2FB03121209322101FB02F2D2
:101910009B1ADBB21A4697F84A10134B9954104B96
:101920001B780133DAB20E4B1A70F7E10B4B1B78C0
:10193000022B40F0F3810C4BDB78502B18D10B4B72
:101940000122DA70D9E100BF440200202801002002
:10195000C0060020CC000020DC170020C1060020BB
:10196000C20600201F85EB51C4060020BC060020E3
:10197000A74BDB78572B40D1A64B01229A70A64883
:1019800005F0FEFDA54805F0FBFDA54805F0F8FDB6
:10199000012387F838304FF00003FB634FF000035A
:1019A0003B644FF000037B6407F1380300211846C5
:1019B00001F04EFAC8201CF0B3F91AF0BDFE994BA5
:1019C000B3F908303B63974BDB697B6307F1300366
:1019D0000221184606F04AFD034687F84B301AF0FC
:1019E000DDFE97F94B30002B40F08781BB6D1B6902
:1019F0004FF47A71012098477FE1854B5B78232B68
:101A000000F0BF80884B1A78884B1A703CE0874BF7
:101A10001B78013B7E4AD35C303B1846FEF762FDE3
:101A200004460D46804B1B781A46804B1B78D31A10
:101A30001846FEF757FD02460B4643EC112B9FED6F
:101A4000720B20F0E9FE53EC102B20462946FEF7DE
:101A5000B3FD02460B4614461D46B86EFEF754FD14
:101A600002460B4620462946FEF7F0FB02460B468F
:101A700010461946FFF798F80346BB666B4B1B7878
:101A8000013BDAB2694B1A70684B1B78032BBED846
:101A90005F4B5B78303B082B00F22F8101A252F89C
:101AA00023F000BFC91A0008E71A0008031B00084A
:101AB000231B0008431B0008631B0008FB1C0008D5
:101AC000FB1C0008FB1C0008D7ED1A7AFDEEE77A34
:101AD00017EE903A1AB2534B1A81BB6D1B69C8219D
:101AE0000120984709E1D7ED1A7AFCEEE77A17EE64
:101AF000902A4C4BDA61BB6D1B69C82101209847C5
:101B0000FBE0D7ED1A7AFCEEE77A17EE903A9BB23B
:101B1000184605F027F8BB6D1B69C82101209847BE
:101B2000EBE0D7ED1A7AFCEEE77A17EE903A9BB22B
:101B3000184605F09BF8BB6D1B69C821012098472A
:101B4000DBE0D7ED1A7AFCEEE77A17EE903A9BB21B
:101B5000184605F00FF9BB6D1B69C8210120984795
:101B6000CBE0D7ED1A7AFCEEE77A17EE903A9BB20B
:101B7000184605F083F9BB6D1B69C8210120984701
:101B8000BBE0234B5B78232B40F0B7804FF0000382
:101B90003B66002387F85F3007F10C032422002105
:101BA00018461FF039FF204B1B78322B00F2A5801E
:101BB0001D4B1B781A46164B7D219954002387F83C
:101BC0005E304EE097F85E30114AD35C2F2B2FD950
:101BD00097F85E300E4AD35C392B29D8D7ED187AA6
:101BE000B2EE047A27EE877A97F85E30084AD35C23
:101BF000303B07EE903AF8EEE77A77EE277AC7EDBA
:101C0000187A29E0AFF300800000000000002440B3
:101C1000C4060020BC0600206000002084000020D4
:101C2000A800002044020020C2060020F606002082
:101C300097F85E30494AD35C3A2B0DD197F85F3064
:101C40005A1C87F85F209B0070333B44643B3A6E1C
:101C50001A604FF000033B6697F85E30013387F857
:101C60005E3097F85E303D4AD35C7D2BAAD197F861
:101C70005F309B0070333B44643B3A6E1A60D7ED93
:101C8000037AFDEEE77A17EE903A1AB2344B1A81D6
:101C9000D7ED047AFCEEE77A17EE902A304BDA6142
:101CA000D7ED057AFCEEE77A17EE903A9BB218462C
:101CB00004F058FFD7ED067AFCEEE77A17EE903A7B
:101CC0009BB2184604F0D2FFD7ED077AFCEEE77A14
:101CD00017EE903A9BB2184605F04CF8D7ED087A0B
:101CE000FCEEE77A17EE903A9BB2184605F0C6F87C
:101CF000BB6D1B69C821012098471A4B00221A703E
:101D0000194B00221A70194B00221A704FF0000371
:101D1000BB663222002111481FF07EFE104BB3F942
:101D2000083040F6B832934203DD0D4B40F6B8322E
:101D30001A810B4BB3F90830002B02DA084B002252
:101D40001A81074BDB69642B7FF656AB044B642288
:101D5000DA61FFF751BB00BFFFF74EBBC40600209E
:101D600044020020C1060020C2060020F606002022
:101D700090B587B000AF0346FB710023FB754C4B59
:101D80003B614C4BFB604C4B1B78022B60D0022B11
:101D900000F38580002B02D0012B20D07FE0FB795F
:101DA000432B0CD1454B1B782B2B08D1424B0122E6
:101DB0001A700123FB75424B02221A706AE0FB790C
:101DC000442B67D13D4B1B782B2B63D13A4B02221E
:101DD0001A700123FB753A4B02221A705AE0384BF5
:101DE0001B781A463B6913441B78FA799A4202D150
:101DF0000123FB7519E0324B1B780C2B12D9304BA9
:101E00001B781D2B0ED8FB792F2B02D9FB79392B90
:101E100005D9FB79602B05D9FB797A2B02D80123F0
:101E2000FB7502E0244B00221A70254B1B7801330E
:101E3000DAB2234B1A70224B1B781C463869FEF726
:101E4000A7F903469C4227D11B4B00221A7023E0BE
:101E50001B4B1B781A46FB6813441B78FA799A428D
:101E600002D10123FB7502E0134B00221A70144BC0
:101E70001B780133DAB2124B1A70114B1B781C46D7
:101E8000F868FEF785F903469C4207D10A4B002209
:101E90001A7003E000BF02E000BF00E000BF074A85
:101EA000FB791370FB7D18461C37BD4690BD00BF03
:101EB000685F0208985F0208F7060020F806002015
:101EC000F906002090B587B000AF0346FB710023F0
:101ED000FB75704B3B61704BFB60704BBB60704B94
:101EE0001B78032B00F2CE8001A252F823F000BF32
:101EF000011F00087B1F0008ED1F000831200008AB
:101F0000FB79432B0CD1674B1B782B2B08D1644BEF
:101F100001221A700123FB75634B02221A702BE019
:101F2000FB794F2B0CD15F4B1B78432B08D15C4BBB
:101F300002221A700123FB755B4B02221A701BE010
:101F4000FB79442B0CD1574B1B782B2B08D1544BCE
:101F500003221A700123FB75534B02221A700BE007
:101F6000FB79432B40F087804E4B1B78432B00F0CE
:101F700082800123FB757EE07DE04B4B1B781A4687
:101F80003B6913441B78FA799A4202D10123FB750D
:101F900019E0454B1B780C2B12D9434B1B781D2B9A
:101FA0000ED8FB792F2B02D9FB79392B05D9FB7978
:101FB000402B05D9FB795A2B02D80123FB7502E08F
:101FC000374B00221A70384B1B780133DAB2364B8C
:101FD0001A70354B1B781C463869FEF7D9F8034652
:101FE0009C424AD12E4B00221A7046E02E4B1B78A1
:101FF0001A46FB6813441B78FA799A4202D10123EE
:10200000FB7502E0264B00221A70274B1B78013328
:10201000DAB2254B1A70244B1B781C46F868FEF781
:10202000B7F803469C422AD11D4B00221A7026E0C5
:102030001D4B1B781A46BB6813441B78FA799A42E9
:1020400002D10123FB7502E0154B00221A70164BDA
:102050001B780133DAB2144B1A70134B1B781C46F1
:10206000B868FEF795F8034601339C4209D10C4B42
:1020700000221A7005E000BF04E000BF02E000BFCC
:1020800000E000BF074AFB791370FB7D18461C3740
:10209000BD4690BDBC5F0208EC5F0208FC5F020811
:1020A000FA060020FB060020FC06002080B400AFEA
:1020B000524B5B7C012B50D1514B9B79002B09D1AA
:1020C000504B00221A60504B00221A604F4B0022E6
:1020D0001A703AE04A4B9B79012B19D1484BD3ED4A
:1020E000027A9FED4B7AF4EEC77AF1EE10FA0FD533
:1020F000444B1B680133434A1360434B00221A6070
:10210000404B1B68192B20D9404B01221A701CE050
:102110003B4B9B79012B18D1394BD3ED027A9FEDC4
:102120003C7AF4EEC77AF1EE10FA0EDB354B002262
:102130001A60354B1B680133334A1360324B1B68FE
:102140000A2B02D9314B02221A702D4B9B79012B9D
:1021500001D100234DE001234BE0284B93F82330BD
:10216000002B01D0022344E02A4BD3ED017AB6EED6
:10217000007AF4EEC77AF1EE10FA31D4264BD3EDA3
:10218000017AB6EE007AF4EEC77AF1EE10FA27D4AF
:10219000224BD3ED017AB6EE007AF4EEC77AF1EE77
:1021A00010FA1DD41E4BD3ED017AB6EE007AF4EE90
:1021B000C77AF1EE10FA13D41A4BD3ED017AB6EECA
:1021C000007AF4EEC77AF1EE10FA09D4164BD3ED8B
:1021D000017AB6EE007AF4EEC77AF1EE10FA01D584
:1021E000032306E0114B1B78012B01D1042300E0EF
:1021F00005231846BD465DF8047B70474402002065
:1022000000000020080700200C0700200407002021
:102210006666263FA8020020E00200201803002086
:102220005003002088030020C00300200007002086
:1022300090B587B000AF78600523FB821BF0BCFE31
:102240000346BB604C4B3B610523FB733B691B683A
:1022500098473B699B6800220021FF2098474FF474
:102260007A701BF05DFD3B699B680022FF21002016
:1022700098474FF47A701BF053FD3B699B68FF222F
:102280000021002098474FF47A701BF049FDFFF7BA
:102290000DFF0346FB73FB7B052B4AD801A252F8C6
:1022A00023F000BFBD220008E9220008F722000841
:1022B00009230008172300082B2300082F4B1B7845
:1022C000022B06D13B69DB680022002120209847C1
:1022D00031E02A4B1B78012B2DD13B69DB680022B2
:1022E00020210020984726E03B69DB6880220021FE
:1022F0006420984720E03B69DC694FF4FA63802250
:1023000000216420A04717E03B69DB6800228021A0
:10231000FF20984710E03B69DB68194A5078184A5B
:102320009178174AD278984706E03B695B689847EE
:1023300002E000BF00E000BFFB8A07EE903AB8EE73
:10234000677AF7EE006AC6EE877A9FED0E7A67EE3F
:10235000877AFCEEE77A17EE902A4FF47A7302FB45
:1023600003F3094AA2FB03239A0907F10803114664
:1023700018461BF055FC8AE73400002004070020B3
:102380000007002000007A44D34D621080B400AFF3
:10239000BFF34F8F00BF064BDB6803F4E0620449D4
:1023A000044B1343CB60BFF34F8F00BF00BFFDE76B
:1023B00000ED00E00400FA0590B591B000AF786040
:1023C0004FF47A701BF0ACFC0022102101201AF0AF
:1023D000BCFB0346A54A13601BF0EEFD0346BB623F
:1023E0006423BB86002387F83F301BF0E5FDB8630C
:1023F000002387F837309E4B3B6307F11803002218
:102400001A605A609A60DA6007F1080300221A60C5
:102410005A609A60DA600023FB62944B1B6807F1F4
:102420001801002218461AF0C1FDF862FB6A012B60
:1024300003D1002387F8373004E097F837300133B1
:1024400087F8373097F837309BB2BA8E9A422AD243
:10245000BB8E87F83730874B1B78DBB2072B0AD04F
:10246000072B20DC032B02DC022B04DA1BE0053BEC
:10247000012B18D809E04FF00003FB614FF0000377
:102480003B624FF000037B620DE07B4B9B7C002B9B
:1024900008D14FF00003FB614FF000033B624FF0A7
:1024A00000037B6200BF07F1080407F118030FCB9C
:1024B00084E80F0007F1080207F1180311461846D7
:1024C00001F0E2FC6C4B93F82030012B05D107F1B1
:1024D0000803184601F09EFD0BE0684B4FF0000228
:1024E0005A60664B4FF000029A60644B4FF0000256
:1024F000DA6007F10803184600F030FE00F068FBD0
:102500005D4B1B78012B40F0C5805D4B1B78052B84
:1025100000F2A48001A252F823F000BF01260008B7
:10252000AF250008AF2500082B260008012600086B
:1025300035250008504BD3ED0A7AFDEEE77A17EE09
:10254000903A1BB24C4AD2ED147AFDEEE77A17EEC0
:10255000902A12B219464B4804F074FE464BD3ED54
:102560000C7AFDEEE77A17EE903A1BB2424AD2EDB2
:10257000127AFDEEE77A17EE902A12B21946424817
:1025800004F060FE3C4BD3ED0E7AFDEEE77A17EED9
:10259000903A1BB2384AD2ED107AFDEEE77A17EE88
:1025A000902A12B21946394804F04CFE56E0324BDC
:1025B000D3ED0A7AFDEEE77A17EE903A1BB22E4A77
:1025C000D2ED107AFDEEE77A17EE902A12B2194694
:1025D0002C4804F037FE284BD3ED0C7AFDEEE77A59
:1025E00017EE903A1BB2244AD2ED0E7AFDEEE77A4E
:1025F00017EE902A12B21946234804F023FE2DE06C
:102600001D4BD3ED0A7AFDEEE77A17EE903A1BB236
:10261000194AD2ED0C7AFDEEE77A17EE902A12B243
:102620001946184804F00EFE18E0134BD3ED0A7A51
:10263000F1EE677AFDEEE77A17EE903A1BB20E4A9A
:10264000D2ED0C7AF1EE677AFDEEE77A17EE902A7A
:1026500012B219460B4804F0F5FD00BF0C4B1B7875
:10266000012B20D10A4B00221A701CE01007002019
:10267000D800002014070020440200201807002082
:10268000DC1700206000002084000020A80000204B
:102690004007002000F07CFA5E4B1B78002B02D133
:1026A0005C4B01221A705C495C4800F03FFCD7ED9E
:1026B000077AF5EE407AF1EE10FA0DD1D7ED087AEF
:1026C000F5EE407AF1EE10FA06D1D7ED097AF5EE83
:1026D000407AF1EE10FA0ED01BF06EFCB8634F4B4F
:1026E00093F82430012B06D14C4B002283F8242090
:1026F000002000F0D1F9494B93F82430002B2BD166
:102700001BF05AFC0246BB6BD31A42F21072934282
:1027100022D9434BD3ED017AF0EEE77AB2EE047A98
:10272000F4EEC77AF1EE10FA13D53D4BD3ED007AF3
:10273000F0EEE77AB2EE047AF4EEC77AF1EE10FA30
:1027400007D5364B012283F82420012000F0A4F99C
:1027500002E01BF031FCB86397F83F30013387F893
:102760003F3097F83F300A2B04D1002387F83F30E1
:1027700000F0B4F9294B1B7C002B04D0274B00221E
:102780001A7400F045F9244B1B78022B02DC002B55
:1027900002DC1CE0052B1AD1204B93F82330002BD0
:1027A00017D0204B1B6801331E4A1360BB8E9B0061
:1027B0001A461C4B1B689A420BD21A4B00221A6015
:1027C0003B6B1B6940F2EE210120984701E000BFFE
:1027D00000E000BFBB8E07EE903AB8EE677AF7EEE6
:1027E000006AC6EE877A9FED107A67EE877AFCEE74
:1027F000E77A17EE902A4FF47A7302FB03F30B4A41
:10280000A2FB03239A0907F12803114618461BF07F
:1028100007FA00E640070020DC17002044020020F1
:10282000B81000204407002000007A44D34D621005
:1028300080B584B000AF03460A46FB711346BB71F6
:10284000624BFB60FB79082B15D1614BB3F9083063
:102850009BB2323B9BB21AB25D4B1A815C4BB3F90F
:102860000830002B02DA5A4B00221A81FB681B69E0
:10287000C82101209847FB79092B18D1544BB3F993
:1028800008309BB232339BB21AB2514B1A81504B73
:10289000B3F9083040F6B832934203DD4C4B40F6B2
:1028A000B8321A81FB681B69C82101209847FB795F
:1028B000072B0FD1BB79032B0CD1464BBB60BB68F8
:1028C0009B689847BB68DB689847FB681B69C82111
:1028D00001209847FB790F2B11D1BB79032B0ED127
:1028E0003B4B5B7C002B0CBF01230023DBB21A4661
:1028F000374B5A74FB681B69C82101209847FB7944
:102900000D2B0AD1BB79032B07D1314B01221A744D
:10291000FB681B69C82101209847FB790C2B11D15A
:10292000BB79032B0ED12A4B5B7D002B0CBF0123FF
:102930000023DBB21A46264B5A75FB681B69C82177
:1029400001209847FB790E2B13D1BB79032B10D1B3
:102950001F4B93F82030002B0CBF01230023DBB268
:102960001A461B4B83F82020FB681B69C8210120F5
:102970009847FB79062B11D1BB79032B0ED1144B51
:10298000DB7C002B0CBF01230023DBB21A46104B6B
:10299000DA74FB681B69C82101209847FB79022B78
:1029A00006D10AF0B5FEFB681B69C82101209847D3
:1029B000FB79032B06D10AF09BFEFB681B69C8213B
:1029C0000120984700BF1037BD4680BDD8000020C9
:1029D000440200202801002080B483B000AF87EDBE
:1029E000010AC7ED000AD7ED017A9FED087A27EEBC
:1029F000877AD7ED007AC7EE276AF0EE667AB0EEF6
:102A0000670A0C37BD465DF8047B704700007042D2
:102A100080B582B000AF0023FB712CE0FB791B4A2C
:102A200052F82330DB7A012B06D1FB79174A52F892
:102A30002330184604F0E0FC154B9B7A012B07D19C
:102A4000FB79124A52F82330184604F024FC06E0C1
:102A5000FB790E4A52F82330184604F061FCFB79EA
:102A60000A4A52F8233000220021184604F0EAFBFB
:102A7000FB790133FB71074B9B78FA799A42CDD3EE
:102A800000BF00BF0837BD4680BD00BFCC0000209E
:102A900044020020DC17002080B584B000AF03465C
:102AA000FB710023FB730BE0FB7B0A4A52F82330D7
:102AB000FA791146184604F074FCFB7B0133FB7372
:102AC000054B9B78FA7B9A42EED300BF00BF1037CC
:102AD000BD4680BDCC000020DC17002080B582B050
:102AE00000AF0023FB7109E0FB79094A52F823305B
:102AF000184604F068FDFB790133FB71054B9B78A8
:102B0000FA799A42F0D300BF00BF0837BD4680BDB6
:102B1000CC000020DC17002080B582B000AF00237D
:102B2000FB7109E0FB79094A52F82330184604F09A
:102B3000F7FBFB790133FB71054B9B78FA799A42DD
:102B4000F0D300BF00BF0837BD4680BDCC000020D9
:102B5000DC17002080B582B000AF0023FB7109E0D4
:102B6000FB79094A52F82330184604F094FBFB79AC
:102B70000133FB71054B9B78FA799A42F0D300BF81
:102B800000BF0837BD4680BDCC000020DC17002008
:102B900080B582B000AF0023FB710BE0FB790A4ADD
:102BA00052F8233000220021184604F04BFBFB7939
:102BB0000133FB71054B9B78FA799A42EED300BF43
:102BC00000BF0837BD4680BDCC000020DC170020C8
:102BD00080B582B000AF954B00225A60002004F00F
:102BE000E1FF034607EE903AB8EE677ADFED906AB0
:102BF000C7EE267A9FED8F7A67EE877AB2EE067A75
:102C000067EE877A894BC3ED037A8B4B5B78002B99
:102C100005D1864B5B6843F48063844A5360834BE1
:102C20001B7D012B05D1814B5B6843F004037F4A78
:102C300053607E4B9B7D002B05D07C4B5B6843F43F
:102C400000737A4A53600DF0E1FB03461A46774B56
:102C50009A72764B9B7A002B05D1744B5B6843F0DC
:102C60000203724A5360714B9B7A002B06D1734B5F
:102C70001B78012B02D1FFF74FFF09E06F4B1B7848
:102C8000002B05D1694B9B7A012B01D1FFF762FF25
:102C9000664B9A7A694B1A70644BD3ED037AB3EEA4
:102CA000027AF4EEC77AF1EE10FA18DD5F4BD3ED3D
:102CB000037A9FED637AF4EEC77AF1EE10FA0ED53F
:102CC000604B1B6801335F4A13605E4B1B68B3F5B2
:102CD0007A7F15D1554B012283F8232010E0594B00
:102CE00000221A60514BD3ED037A9FED577AF4EE30
:102CF000C77AF1EE10FA03DD4C4B002283F8232053
:102D00004A4BD3ED037AB3EE047AF4EEC77AF1EED0
:102D100010FA09D5454B5B7C002B05D1434B5B6812
:102D200043F00103414A53600023FB7156E0FB79F5
:102D3000464A52F82330DB7A012B22D1FB79434AF1
:102D400052F823301B78032B14D0032B19DC012BF2
:102D500002D0022B07D014E0344B5B6843F0100321
:102D6000324A53600DE0314B5B6843F040032F4A19
:102D7000536006E02D4B5B6843F480732B4A53602D
:102D800000BFFB79314A52F823309B7A002B22D1C5
:102D9000FB792E4A52F823301B78032B14D0032BD7
:102DA00019DC012B02D0022B07D014E01F4B5B680B
:102DB00043F008031D4A53600DE01C4B5B6843F071
:102DC00020031A4A536006E0184B5B6843F0800307
:102DD000164A536000BFFB790133FB71164B9B7899
:102DE000FA799A42A3D3144B5B78002B03D10F4B93
:102DF00000221A7016E00D4B9B7D002B03D00B4B6D
:102E000000221A700EE0094B5B68002B07D0074BBD
:102E1000DB7C002B03D1054B00221A7002E0034B30
:102E200001221A7000BF0837BD4680BD4402002051
:102E300000F07F4533335340DC1700201C00002096
:102E40000000A441480700200000AC41CC00002055
:102E500080B586B000AF786039600023FB75304BD9
:102E60001B68002B07D07B681B78002B03D07B6886
:102E70001B78072B01D901234EE07B681A78294B78
:102E80001B78DBB29A4206D87B681A78254B1A70F9
:102E90000123FB751BE000233B61EFF30583FB601F
:102EA000FB68002B03D01BF097F8386102E01BF0A1
:102EB00083F838611C4B1B683A69D31AB3F5FA6F73
:102EC00005D37B681A78174B1A700123FB75FB7DBD
:102ED000002B20D0EFF30583BB60BB68002B0CD028
:102EE0001BF07AF80346104A13600D4B1868022352
:102EF0003A68796819F0BCFF0BE01BF05DF80346F7
:102F0000094A1360064B186802230022796819F0F9
:102F1000ADFE002300E0012318461837BD4680BDF2
:102F200010070020140700204C07002080B483B055
:102F300000AF786039603B681B78052B00F2CE80CB
:102F400001A252F823F000BF953000080F300008AE
:102F50000F3000089530000895300008612F0008F8
:102F60007B6893ED0B7A7B68D3ED0D7A37EE277A89
:102F70007B68D3ED0F7A37EE277A7B68D3ED117A31
:102F800037EE277A7B68D3ED137A37EE277A7B68A2
:102F9000D3ED157A37EE277AF1EE086AC7EE267A76
:102FA0007B68C3ED167A7B684FF00002DA657B68B8
:102FB000D3ED0B7AB1EE677A7B68D3ED0D7A37EEFD
:102FC000677A7B68D3ED0F7A37EE677A7B68D3ED4B
:102FD000117A37EE277A7B68D3ED137A37EE277AAA
:102FE0007B68D3ED157A77EE277AB1EE087AC7EED3
:102FF000876A3B6893ED017A3B68D3ED027A37EE3E
:10300000277AC6EE877A7B68C3ED187A66E07B681C
:1030100093ED0B7A7B68D3ED0D7A37EE277A7B68D8
:10302000D3ED0F7A37EE277A7B68D3ED117A37EE3E
:10303000277AF1EE006AC7EE267A7B68C3ED167A2E
:103040007B684FF00002DA657B68D3ED0B7AB1EE56
:10305000677A7B68D3ED0D7A37EE677A7B68D3EDBC
:103060000F7A37EE277A7B68D3ED117A77EE277ADD
:10307000B1EE007AC7EE876A3B6893ED017A3B6850
:10308000D3ED027A37EE277AC6EE877A7B68C3EDF6
:10309000187A23E07B6893ED0B7A7B68D3ED0D7A89
:1030A00037EE277AF0EE006AC7EE267A7B68C3ED2A
:1030B000167A7B684FF00002DA657B6893ED0D7A33
:1030C0007B68D3ED0B7A77EE676A3B6893ED017A04
:1030D000C6EE877A7B68C3ED187A00BF00BF0C3755
:1030E000BD465DF8047B704780B483B000AF786064
:1030F0000B46FB70FB78012B11D17B68322B21D959
:103100007B68323B07EE903AF8EE677A9FED127AD1
:1031100067EE877AB7EE007A77EE877A14E07B68FD
:10312000312B0FD87B68C3F1320307EE903AF8EEEB
:10313000677A9FED097A67EE877AB7EE007A77EEC5
:10314000877A01E0F7EE007AB0EE670A0C37BD46E9
:103150005DF8047B704700BF6F12833B80B58AB077
:1031600000AF7860CE4B7B6207F10C0300221A603F
:103170005A609A60DA607B685B683B617B689B6839
:103180007B617B6893ED037AC64BD3ED037A77EED0
:10319000277AC7ED067AC44B5B7C012B10D17B6884
:1031A0001B78072B0CD07B681B78052B08D04FF0C1
:1031B00000033B614FF000037B614FF00003BB61F4
:1031C00007F10C039FEDB90A1946B94800F09EFBC0
:1031D000B54BDB6901211846FFF786FF87ED080A2A
:1031E000B14BDB6900211846FFF77EFF87ED070A28
:1031F000B04B1B78052B40F0AD81AD4B93ED017AC0
:10320000AB4BD3ED036AAB4B93ED026AA94BD3ED05
:10321000017A76EE277A66EEA77A77EE677AA24B86
:10322000C3ED0A7AA24B93ED017AA14BD3ED036A69
:10323000A04B93ED026A9F4BD3ED017A76EE277A8D
:1032400066EEA77A77EE677A974BC3ED0C7A984BC8
:1032500093ED017A964BD3ED036A964B93ED026A98
:10326000944BD3ED017A76EE277A66EEA77A77EE65
:10327000677A8D4BC3ED0E7A8D4B93ED017A8C4BB3
:10328000D3ED036A8B4B93ED026A8A4BD3ED017A3F
:1032900076EE277A66EEA77A77EE277A824BC3ED31
:1032A000107A834B93ED017A814BD3ED036A814B06
:1032B00093ED026A7F4BD3ED017A76EE277A66EEC4
:1032C000A77A77EE277A784BC3ED127A784B93ED95
:1032D000017A774BD3ED036A764B93ED026A754B17
:1032E000D3ED017A76EE277A66EEA77A77EE277A23
:1032F0006D4BC3ED147A6C4B93ED0A7AD7ED087AD7
:1033000067EE277A684BC3ED0A7A674B93ED0C7A28
:10331000D7ED087A67EE277A634BC3ED0C7A624BE0
:1033200093ED0E7AD7ED087A67EE277A5E4BC3ED00
:103330000E7A5D4B93ED107AD7ED077A67EE277A18
:10334000594BC3ED107A584B93ED127AD7ED077AAB
:1033500067EE277A544BC3ED127A534B93ED147AF0
:10336000D7ED077A67EE277A4F4BC3ED147A4E4BB1
:1033700093ED0A7AD7ED097AF1EE677A97ED091A9B
:10338000F0EE670AB0EE470A00F0A4FFF0EE407AD4
:10339000454BC3ED0A7A444B93ED0C7AD7ED097A8D
:1033A000F1EE677A97ED091AF0EE670AB0EE470A78
:1033B00000F090FFF0EE407A3B4BC3ED0C7A3A4BB5
:1033C00093ED0E7AD7ED097AF1EE677A97ED091A47
:1033D000F0EE670AB0EE470A00F07CFFF0EE407AAC
:1033E000314BC3ED0E7A304B93ED107AD7ED097A5D
:1033F000F1EE677A97ED091AF0EE670AB0EE470A28
:1034000000F068FFF0EE407A274BC3ED107A264BB0
:1034100093ED127AD7ED097AF1EE677A97ED091AF2
:10342000F0EE670AB0EE470A00F054FFF0EE407A83
:103430001D4BC3ED127A1C4B93ED147AD7ED097A2C
:10344000F1EE677A97ED091AF0EE670AB0EE470AD7
:1034500000F040FFF0EE407A134BC3ED147A124BAC
:10346000D3ED0A7A134B93ED037AF0EE470AB0EEF0
:10347000670AFFF7B1FAF0EE407A0B4BC3ED0A7A18
:10348000094BD3ED0C7A0B4B93ED037AF0EE470A20
:10349000B0EE670AFFF7A0FAF0EE407A0CE000BF4A
:1034A0000000604018070020440200200AD7A33C17
:1034B00050070020DC170020B54BC3ED0C7AB44B4D
:1034C000D3ED0E7AB34B93ED037AF0EE470AB0EEEC
:1034D000670AFFF781FAF0EE407AAD4BC3ED0E7A42
:1034E000AB4BD3ED107AAB4B93ED037AF0EE470A7A
:1034F000B0EE670AFFF770FAF0EE407AF1EE677A05
:10350000A34BC3ED107AA24BD3ED127AA14B93EDEE
:10351000037AF0EE470AB0EE670AFFF75DFAF0EEC5
:10352000407AF1EE677A9A4BC3ED127A984BD3ED5D
:10353000147A984B93ED037AF0EE470AB0EE670ADF
:10354000FFF74AFAF0EE407AF1EE677A904BC3ED5E
:10355000147AD0E18F4B1B78012B04D08D4B1B7854
:10356000022B40F01B818C4B93ED017A8A4BD3EDFB
:10357000036A884B93ED026A864BD3ED017A76EEAF
:10358000277A66EEA77A77EE677A814BC3ED0A7ADF
:10359000814B93ED017A804BD3ED036A7D4B93ED24
:1035A000026A7C4BD3ED017A76EE277A66EEA77A33
:1035B00077EE677A764BC3ED0C7A774B93ED017A11
:1035C000754BD3ED036A734B93ED026A714BD3EDE8
:1035D000017A76EE277A66EEA77A77EE277A6C4B39
:1035E000C3ED0E7A6C4B93ED017A6B4BD3ED036A0E
:1035F000684B93ED026A674BD3ED017A76EE277A3A
:1036000066EEA77A77EE277A614BC3ED107A604BAE
:1036100093ED0A7AD7ED087A67EE277A5C4BC3ED13
:103620000A7A5B4B93ED0C7AD7ED087A67EE277A2E
:10363000574BC3ED0C7A564B93ED0E7AD7ED077AC4
:1036400067EE277A524BC3ED0E7A514B93ED107A09
:10365000D7ED077A67EE277A4D4BC3ED107A4C4BC6
:1036600093ED0A7AD7ED097AF1EE677A97ED091AA8
:10367000F0EE670AB0EE470A00F02CFEF0EE407A5A
:10368000434BC3ED0A7A424B93ED0C7AD7ED097A9E
:10369000F1EE677A97ED091AF0EE670AB0EE470A85
:1036A00000F018FEF0EE407A394BC3ED0C7A384B3F
:1036B00093ED0E7AD7ED097AF1EE677A97ED091A54
:1036C000F0EE670AB0EE470A00F004FEF0EE407A32
:1036D0002F4BC3ED0E7A2E4B93ED107AD7ED097A6E
:1036E000F1EE677A97ED091AF0EE670AB0EE470A35
:1036F00000F0F0FDF0EE407A254BC3ED107A244B3C
:10370000D3ED0A7A234B93ED037AF0EE470AB0EE3D
:10371000670AFFF761F9F0EE407A1D4BC3ED0A7AB4
:103720001B4BD3ED0C7A1B4B93ED037AF0EE470A5B
:10373000B0EE670AFFF750F9F0EE407A144BC3ED94
:103740000C7A134BD3ED0E7A124B93ED037AF0EE15
:10375000470AB0EE670AFFF73FF9F0EE407AF1EE64
:10376000677A0B4BC3ED0E7A094BD3ED107A094BF8
:1037700093ED037AF0EE470AB0EE670AFFF72CF9F3
:10378000F0EE407AF1EE677A014BC3ED107AB2E0C9
:1037900044020020DC17002050070020584B1B7803
:1037A000002B08D0564B1B78032B04D0544B1B78AE
:1037B000042B40F0A080534B93ED017A514BD3ED95
:1037C000036A4F4BD3ED017A66EEA76AB0EE006A4A
:1037D000C6EE867A77EE677A4B4BC3ED0A7A494B91
:1037E00093ED017A474BD3ED036A454BD3ED017A54
:1037F00066EEA76AB0EE006AC6EE867A77EE277AA2
:10380000414BC3ED0C7A404B93ED0A7AD7ED087A21
:1038100067EE277A3C4BC3ED0A7A3B4B93ED0C7A6B
:10382000D7ED077A67EE277A374BC3ED0C7A364B24
:1038300093ED0A7AD7ED097AF1EE677A97ED091AD6
:10384000F0EE670AB0EE470A00F044FDF0EE407A71
:103850002D4BC3ED0A7A2C4B93ED0C7AD7ED097AF8
:10386000F1EE677A97ED091AF0EE670AB0EE470AB3
:1038700000F030FDF0EE407A234BC3ED0C7A224B82
:10388000D3ED0A7A1E4B93ED037AF0EE470AB0EEC1
:10389000670AFFF7A1F8F0EE407AF1EE677A1A4B6B
:1038A000C3ED0A7A184BD3ED0C7A154B93ED037ADE
:1038B000F0EE470AB0EE670AFFF78EF8F0EE407AB6
:1038C000114BC3ED0C7A0E4B1B78002B03D00C4B25
:1038D0001B78032B0FD10C4BD3ED0A7AF1EE677AEC
:1038E000094BC3ED0A7A084BD3ED0C7AF1EE677AF7
:1038F000054BC3ED0C7A00BF2837BD4680BD00BF25
:10390000DC170020500700204402002080B485B05E
:1039100000AFF860B96087ED010ABB6893ED017AEA
:10392000FB68D3ED017AB4EEE77AF1EE10FA19DD17
:10393000FB6893ED017AD7ED017A77EE277AFB6881
:10394000C3ED017AFB6893ED017ABB68D3ED017A90
:10395000B4EEE77AF1EE10FA2DDDBB685A68FB6829
:103960005A6028E0BB6893ED017AFB68D3ED017AD9
:10397000B4EEE77AF1EE10FA19D5FB6893ED017A0F
:10398000D7ED017A77EE677AFB68C3ED017AFB68C1
:1039900093ED017ABB68D3ED017AB4EEE77AF1EEEC
:1039A00010FA08D5BB685A68FB685A6003E0BB6828
:1039B0005A68FB685A60BB6893ED027AFB68D3EDE6
:1039C000027AB4EEE77AF1EE10FA19DDFB6893EDB6
:1039D000027AD7ED017A77EE277AFB68C3ED027A97
:1039E000FB6893ED027ABB68D3ED027AB4EEE77A16
:1039F000F1EE10FA2DDDBB689A68FB689A6028E04A
:103A0000BB6893ED027AFB68D3ED027AB4EEE77AF5
:103A1000F1EE10FA19D5FB6893ED027AD7ED017A31
:103A200077EE677AFB68C3ED027AFB6893ED027A62
:103A3000BB68D3ED027AB4EEE77AF1EE10FA08D55E
:103A4000BB689A68FB689A6003E0BB689A68FB6889
:103A50009A60BB68DA68FB68DA6000BF1437BD465D
:103A60005DF8047B704780B485B000AF0346FB71FE
:103A70000023FB7309E0FB7903F00103DAB2FB7B5F
:103A80001344FB73FB795B08FB71FB79002BF2D1CC
:103A9000FB7B18461437BD465DF8047B704780B445
:103AA00083B000AF0346FB71FB79032B0AD0032BD5
:103AB0000ADC012B02D0022B02D005E00F2304E028
:103AC000302302E03F2300E0002318460C37BD46B8
:103AD0005DF8047B7047000080B483B000AF78606D
:103AE0007B68D3ED037AF0EEE77A9FED1A7AF4EE75
:103AF000C77AF1EE10FA0BDC7B68D3ED027AF0EEB8
:103B0000E77A9FED157AF4EEC77AF1EE10FA01DD4F
:103B1000032318E07B68D3ED017A9FED0F7AF4EE72
:103B2000C77AF1EE10FA01DD01230CE07B68D3EDDA
:103B3000017A9FED0A7AF4EEC77AF1EE10FA01D518
:103B4000022300E0002318460C37BD465DF8047BD5
:103B5000704700BFCDCC4C3D0AD7A33C0AD7A3BCCD
:103B600080B586B000AF03463960FB71FB7918461B
:103B7000FFF795FF03463B750023FB750023BB75DC
:103B800000237B7534E07B7D204A52F823301B6B89
:103B90003B617B7D012202FA03F3FB737B7D1C4AB0
:103BA00052F823303A699A421FD07B7D18493A690E
:103BB00041F823203A7DFB7B1340DBB2002B14D06D
:103BC000FA7DFB7B1343FB757B7D104A52F8233053
:103BD000D3ED017A9FED0F7AF4EEC77AF1EE10FA89
:103BE00003D5BA7DFB7B1343BB757B7D01337B75AE
:103BF0007B7D052BC7D93B68002B02D03B68FA7D43
:103C00001A70BB7D18461837BD4680BDE86B0208A8
:103C100028070020CDCC4C3E80B584B000AF0346D1
:103C200087ED000AFB71FB791846FFF738FF034662
:103C3000BB73BB7B002B01D1012323E00023FB736B
:103C40001CE0FB7B012202FA03F37B73BA7B7B7BD4
:103C50001340DBB2002B0ED0FB7B0C4A52F8233012
:103C6000D3ED017A97ED007AB4EEE77AF1EE10FA2F
:103C700001DD002306E0FB7B0133FB73FB7B052B9F
:103C8000DFD9012318461037BD4680BDE86B020816
:103C900080B400AF5C4B1B78052B00F2AE8001A214
:103CA00052F823F0C13D0008573D0008573D000879
:103CB000C13D0008C13D0008BD3C0008534BD3ED99
:103CC0000B7AF0EEE77A9FED527AF4EEC77AF1EED6
:103CD00010FA3DD54D4BD3ED0D7AF0EEE77A9FED1E
:103CE0004C7AF4EEC77AF1EE10FA31D5474BD3EDAA
:103CF0000F7AF0EEE77A9FED467AF4EEC77AF1EEAE
:103D000010FA25D5414BD3ED117AF0EEE77A9FED0D
:103D1000407AF4EEC77AF1EE10FA19D53B4BD3EDA9
:103D2000137AF0EEE77A9FED3A7AF4EEC77AF1EE85
:103D300010FA0DD5354BD3ED157AF0EEE77A9FEDFD
:103D4000347AF4EEC77AF1EE10FA01D5012300E0DF
:103D50000023DBB252E02D4BD3ED0B7AF0EEE77A85
:103D60009FED2B7AF4EEC77AF1EE10FA25D5274BAA
:103D7000D3ED0D7AF0EEE77A9FED257AF4EEC77A6F
:103D8000F1EE10FA19D5214BD3ED0F7AF0EEE77A68
:103D90009FED1F7AF4EEC77AF1EE10FA0DD51B4BAA
:103DA000D3ED117AF0EEE77A9FED197AF4EEC77A47
:103DB000F1EE10FA01D5012300E00023DBB21DE093
:103DC000124BD3ED0B7AF0EEE77A9FED117AF4EE19
:103DD000C77AF1EE10FA0DD50C4BD3ED0D7AF0EE5B
:103DE000E77A9FED0B7AF4EEC77AF1EE10FA01D57F
:103DF000012300E00023DBB200E001231846BD46AA
:103E00005DF8047B704700BFDC17002044020020EF
:103E10008FC2F53C80B400AF084B00229A75074B67
:103E20000022DA75054B00221A76044B00225A76DE
:103E300000BFBD465DF8047B704700BF4402002010
:103E400080B584B000AF03460A46FB711346BB71D0
:103E50000B4BFB600B4B01229A750A4AFB79D37519
:103E6000084B00221A76074ABB795376FB685B69D8
:103E70004FF47A70984700BF1037BD4680BD00BF31
:103E8000D80000204402002080B584B000AF7860E4
:103E900039607868FFF720FE0346FB735B4B5B7D60
:103EA000002B05D15A4B00221A70FFF7B3FFAAE08E
:103EB000564B9B7D002B59D100237B730023BB7392
:103EC000524BDB7DFA7B9A4205D0504B00221A768A
:103ED0004E4B00225A764D4AFB7BD375FB7B002B61
:103EE00006D14A4B00221A76484B00225A768AE0C5
:103EF00007F10D02FB7B11461846FFF731FE034622
:103F0000BB73BB7B002B27D0BB7B1846FFF7ABFDF9
:103F10000346012B03D83D4B1B7E002B15D03C4B99
:103F200000221A70BA7BFB7B11461846FFF788FF08
:103F30003B684FF000025A603B684FF000029A6005
:103F40003B684FF00002DA605DE0304B01221A76E8
:103F50002E4ABB7B537653E07B7B002B50D02B4B00
:103F600000221A76294B00225A7649E03B684FF02E
:103F700000025A603B684FF000029A603B684FF0C5
:103F80000002DA60FFF784FE0346002B0AD0204BC4
:103F90001B78FF2B09D01E4B1B780133DAB21C4B68
:103FA0001A7002E01A4B00221A70184B9B7D012BED
:103FB00007D1174B1B78042B24D9144B02229A7576
:103FC00020E0134B1B78002B03D1104B01229A7574
:103FD00019E07868FFF780FD0346FB73FB7B002B3D
:103FE00008D0FB7BB5EE000A1846FFF715FE034626
:103FF000002B08D0064B00221A70FFF70BFF02E0DF
:1040000000BF00E000BF1037BD4680BD4402002065
:104010006007002080B586B000AF7860954B7B616B
:10402000954B3B61954B1B78042B06D0042B13DC7E
:10403000002B0CD0032B05D00EE0914B7B61914BF4
:104040003B610AE0904B7B61904B3B6105E0904BFC
:104050007B61904B3B6100E000BF7B68D3ED017A50
:10406000F5EE407AF1EE10FA00F0B9807B68D3EDFE
:10407000027AF5EE407AF1EE10FA40F0B0807B68FB
:10408000D3ED037AF5EE407AF1EE10FA40F0A78016
:10409000814B1B78002B40F0A280804B1B780133B2
:1040A000DAB27E4B1A707D4B1B78462B03D17C4BCA
:1040B0009B687C4A1360794B1B78452B40F2D78074
:1040C000764B47221A70774B93ED007A744BD3ED01
:1040D000027A77EE677AC7ED037AD7ED037A9FED20
:1040E000727AF4EEC77AF1EE10FA07DDD7ED037AB3
:1040F0009FED6E7A77EEC77AC7ED037AD7ED037A34
:104100009FED6B7AF4EEC77AF1EE10FA07D5D7ED92
:10411000037A9FED667A77EE877AC7ED037AD7ED5B
:10412000037AF0EEE77AB3EE0E7AF4EEC77AF1EEA8
:1041300010FA07DD584B01221A705E4B4FF0000257
:10414000DA6094E05C4BD3ED167AF0EEE77A9FEDFF
:104150005B7AF4EEC77AF1EE10FA28DB584B1B7845
:104160000133DAB2564B1A70554B1B78502B19D9C4
:10417000534B51221A7097ED057AD7ED037A27EE4B
:10418000277A504BD3ED026AD7ED047A66EEA77A10
:10419000DFED4D6A67EEA67A77EE677A454BC3EDA1
:1041A000037A0BE0434B4FF00002DA6006E0414B2C
:1041B0004FF00002DA60424B00221A703D4BD3ED03
:1041C000037A9FED421ADFED420AB0EE670A00F073
:1041D00081F8F0EE407A374BC3ED037A47E07B6815
:1041E000D3ED017AF5EE407AF1EE10FA30D17B682A
:1041F000D3ED027AF5EE407AF1EE10FA28D17B6821
:10420000D3ED037AF5EE407AF1EE10FA20D1234B8C
:104210001B780133DAB2214B1A70204B1B78642BC8
:1042200006D91F4B9B681F4A13601C4B65221A70EE
:10423000204B4FF000025A601E4B4FF000029A6074
:104240001C4B4FF00002DA60134B00221A700EE094
:10425000124B00221A70174B4FF000025A60154B98
:104260004FF000029A60134B4FF00002DA601837EB
:10427000BD4680BD0AD7A33DCDCC4C3DDC17002008
:104280008FC2F53C4260E53B0AD7233D0AD7A33BEA
:104290008FC2753D8FC2753C610700206207002008
:1042A000B810002064070020000034430000B4432D
:1042B000000034C31807002044020020CDCC4C3D40
:1042C000680700207010002033336542C3F5C83FF3
:1042D000C3F5C8BF80B485B000AF87ED030AC7ED52
:1042E000020A87ED011A97ED037AD7ED027AB4EE50
:1042F000E77AF1EE10FA01D5BB680BE097ED037A8F
:10430000D7ED017AB4EEE77AF1EE10FA01DD7B68C1
:1043100000E0FB6807EE903AB0EE670A1437BD463E
:104320005DF8047B704780B485B000AFF860B96079
:104330007A60FA68BB689A4201DABB6806E0FA68FC
:104340007B689A4201DD7B6800E0FB681846143701
:10435000BD465DF8047B704780B483B000AF87ED45
:10436000010AC7ED000AD7ED017ADFED076A87EE93
:10437000A67AD7ED007A67EE277AB0EE670A0C3797
:10438000BD465DF8047B70470000704280B588B080
:1043900000AF0346FB712A4B1B781946294AFB796B
:1043A0005354FB79722B03D0254B1B78002B06D07E
:1043B000234B1B780133DAB2214B1A7002E0204BF9
:1043C00000221A701E4B1B78052B35D11C4B002286
:1043D0001A701C4B1B78722B2ED11A4B5B78652BF5
:1043E0002AD1184B9B78732B26D1164BDB78652B83
:1043F00022D1144B1B79742B1ED101233B734FF038
:1044000000033B614FF000037B614FF00003BB6191
:104410000023FB770BE007F10C0300211846FEF7A1
:1044200017FD0A2019F07CFCFB7F0133FB77FB7F33
:10443000312BF0D9FDF7AAFF00BF2037BD4680BD64
:10444000690700206C07002080B584B000AF0346E8
:10445000FB71334B1B781946324AFB795354FB7975
:104460004C2B03D02E4B1B78002B06D02C4B1B78EB
:104470000133DAB22A4B1A7002E0294B00221A707B
:10448000274B1B78042B46D1254B00221A70254B55
:104490001B784C2B3FD1234B5B784F2B3BD1214BCF
:1044A0009B78472B37D11F4BDB78303B032B1FD832
:1044B00001A252F823F000BFC9440008D344000809
:1044C000DD440008E7440008174B002283F8212050
:1044D00013E0154B012283F821200EE0124B02223B
:1044E00083F8212009E0104B032283F8212004E007
:1044F0000D4B002283F8212000BF0C4BFB60FB68B2
:104500001B69C82101209847094B18680023022223
:1045100000211AF071FB00BF1037BD4680BD00BFFF
:10452000710700207407002044020020D8000020FA
:10453000A819002080B485B000AF78600B467B805E
:104540000023FB730023BB8109E0BB897A68134415
:104550001A78FB7B5340FB73BB890133BB81BA895B
:104560007B889A42F1D3FB7B18461437BD465DF831
:10457000047B704790B58DB000AF7860002387F85A
:104580002C30002387F82F300B2387F82D30834BF6
:104590001B6807F12C014FF0FF32184618F006FD9A
:1045A0000346012BF3D197F82C301846FFF7EEFEA7
:1045B00097F82C301846FFF747FF97F82F3097F8F9
:1045C0002C2030333B4403F8182C97F82C307B2BED
:1045D00003D097F82F30002B05D097F82F300133F8
:1045E00087F82F3002E0002387F82F3097F82D202E
:1045F00097F82F309A42CAD1002387F82F3097F8C6
:104600002D30013B30333B4413F8183C7D2BBED199
:1046100097F82D30023B30333B4413F8184C97F891
:104620002D309BB2023B9AB207F11803114618468F
:10463000FFF780FF03469C42A9D17B7EFF2B05D16B
:1046400007F11803184600F0B3F8A0E705233B7202
:104650004FF00003FB604FF000033B614FF000039D
:104660007B617B7E022B36D8FB7E1BB21B021AB20B
:104670003B7F1BB213431BB207EE903AB8EEE77ACA
:10468000DFED476AC7EE267AC7ED037A7B7F1BB260
:104690001B021AB2BB7F1BB213431BB207EE903A48
:1046A000B8EEE77ADFED3E6AC7EE267AC7ED047A08
:1046B000FB7F1BB21B021AB297F820301BB21343C8
:1046C0001BB207EE903AB8EEE77ADFED356AC7EE37
:1046D000267AC7ED057A7B7E002B06D1314B00226E
:1046E0005A74BA7E2F4B9A741FE07B7E012B02D046
:1046F0007B7E022B03D12B4B01225A7415E07B7E6B
:10470000042B12D1BB7E012B0CD1274B01221A7036
:10471000FA7E254B5A703A7F234B9A707A7F224B50
:10472000DA7002E0204B00221A70012387F82E3045
:10473000D7ED037AF5EE407AF1EE10FA14D1D7ED09
:10474000047AF5EE407AF1EE10FA0DD1D7ED057A44
:10475000F5EE407AF1EE10FA06D1144B1B780133D6
:10476000DAB2124B1A7002E0104B00221A700F4B93
:104770001B780A2B05D9002387F82E300B4B0A2211
:104780001A7097F82E30002B3FF401AF07F10803A1
:1047900000211846FEF75CFBF9E600BFA0190020D7
:1047A00000007A4444020020000700208207002015
:1047B00080B485B000AF78607B68DB783B737B6842
:1047C0001B797B737B685B79BB737B689B79FB731D
:1047D0003A7B214B1B789A4228D17A7B1E4B5B781F
:1047E0009A4223D1BA7B1C4B9B789A421ED1FA7B0A
:1047F000194BDB789A4219D1184B1B780133DAB286
:10480000164B1A70154B1B78312B1FD93A7B144B62
:104810001A707A7B124B5A70BA7B114B9A70FA7BE2
:104820000F4BDA700F4B01221A700FE00B4B012275
:104830001A703A7B084B1A707A7B074B5A70BA7B16
:10484000054B9A70FA7B044BDA7000BF00BF143737
:10485000BD465DF8047B7047780700208007002084
:104860007C0700208107002080B582B000AF03469E
:104870000A46FB711346BB71FB79BA7919460348A6
:104880001CF02CFF00BF0837BD4680BD1060020839
:1048900080B483B000AF0346FB71094B1B881A46F6
:1048A000FB7942FA03F303F00103002B01D001234B
:1048B00000E0002318460C37BD465DF8047B7047C6
:1048C0008407002080B483B000AF78600B46FB7093
:1048D0001346BB70FB78012B0BD17B681A88BB7821
:1048E000012101FA03F39BB213439AB27B681A8049
:1048F0000CE07B681A88BB78012101FA03F39BB2B4
:10490000DB439BB213409AB27B681A8000BF0C371E
:10491000BD465DF8047B704780B586B000AFF86097
:10492000B9601346FB710023BB75BB68DA78AE4BE8
:104930001A70BB6804331B78DB43DAB2AA4B5A7097
:10494000BB685A78A84B9A70BB689A78A64BDA7005
:10495000BB6806331B781B09DBB203F00103BB7590
:10496000BB7D00221946A148FFF7ACFFBB680633A8
:104970001B789B09DBB203F00103BB75BB7D0122F1
:1049800019469A48FFF79EFFBB6806331B78DB0980
:10499000BB75BB7D022219469448FFF793FFBB68A5
:1049A00006331B785B09DBB203F00103BB75BB7DEB
:1049B000032219468D48FFF785FFBB6805331B7836
:1049C00003F00F03BB75BB7D0F2B14D10422002114
:1049D0008648FFF777FF052200218448FFF772FF22
:1049E000062200218148FFF76DFF072200217F4842
:1049F000FFF768FF75E0BB7D03F00103002B29D1B1
:104A0000BB7D5B08DBB203F00303032B66D801A276
:104A100052F823F0254A0008314A00083D4A0008B0
:104A2000494A0008042201217048FFF74BFF58E073
:104A3000052201216D48FFF745FF52E006220121C2
:104A40006A48FFF73FFF4CE0072201216748FFF764
:104A500039FF46E0BB7D03F00103002B41D0BB7D55
:104A60005B08DBB203F00303032B39D801A252F831
:104A700023F000BF854A00089B4A0008B14A00089D
:104A8000C74A0008042201215848FFF71BFF0522EE
:104A900001215648FFF716FF23E006220121534863
:104AA000FFF710FF052201215048FFF70BFF18E028
:104AB000062201214D48FFF705FF072201214B483F
:104AC000FFF700FF0DE0042201214848FFF7FAFE3E
:104AD000072201214548FFF7F5FE02E000BF00E094
:104AE00000BFBB6806331B789B08DBB203F00103F1
:104AF000BB75BB7D082219463C48FFF7E3FEBB7D32
:104B0000002B03D0384BFF221A7102E0364B0022F3
:104B10001A71BB6806331B78DB08DBB203F00103B4
:104B2000BB75BB7D092219463048FFF7CBFEBB7D24
:104B3000002B03D02C4BFF225A7102E02A4B00229B
:104B40005A71BB6806331B7803F00103BB75BB7D4C
:104B50000A2219462548FFF7B5FEBB6806331B78C5
:104B60005B08DBB203F00103BB75BB7D0B2219466A
:104B70001E48FFF7A7FEBB6805331B781B09DBB295
:104B800003F00103BB75BB7D0C2219461748FFF7E4
:104B900099FEBB6805331B785B09DBB203F00103A8
:104BA000BB75BB7D0D2219461048FFF78BFEBB6815
:104BB00005331B789B09DBB203F00103BB75BB7D9A
:104BC0000E2219460948FFF77DFEBB6805331B78A6
:104BD000DB09BB75BB7D0F2219460448FFF772FE47
:104BE0000023FB751EE000BF20000020840700208A
:104BF000104B1888FB7D1B010F4A1344FA7D1946A0
:104C000003F004FD03467B757B7D002B06D07A7D87
:104C1000FB7D11461846FFF727FE00E000BFFB7D35
:104C20000133FB75FB7D0F2BE2D900BF00BF1837A6
:104C3000BD4680BD840700208807002080B586B06F
:104C400000AFF860B9601346FB710023BB75BB6809
:104C50001A78AE4B1A70BB6801331B78DB43DAB2AB
:104C6000AA4B5A70BB68DA78A84B9A70BB681A795D
:104C7000A64BDA70BB6806331B781B09DBB203F066
:104C80000103BB75BB7D00221946A148FFF71AFE40
:104C9000BB6806331B789B09DBB203F00103BB75CD
:104CA000BB7D012219469A48FFF70CFEBB6806330C
:104CB0001B78DB09BB75BB7D022219469448FFF7C0
:104CC00001FEBB6806331B785B09DBB203F001030E
:104CD000BB75BB7D032219468D48FFF7F3FDBB680A
:104CE00005331B7803F00F03BB75BB7D0F2B14D16D
:104CF000042200218648FFF7E5FD052200218448B3
:104D0000FFF7E0FD062200218148FFF7DBFD0722C7
:104D100000217F48FFF7D6FD75E0BB7D03F001035E
:104D2000002B29D1BB7D5B08DBB203F00303032B0F
:104D300066D801A252F823F0494D0008554D0008ED
:104D4000614D00086D4D0008042201217048FFF7F5
:104D5000B9FD58E0052201216D48FFF7B3FD52E08F
:104D6000062201216A48FFF7ADFD4CE00722012130
:104D70006748FFF7A7FD46E0BB7D03F00103002B6A
:104D800041D0BB7D5B08DBB203F00303032B39D8B2
:104D900001A252F823F000BFA94D0008BF4D000842
:104DA000D54D0008EB4D0008042201215848FFF7BB
:104DB00089FD052201215648FFF784FD23E00622E4
:104DC00001215348FFF77EFD052201215048FFF7DE
:104DD00079FD18E0062201214D48FFF773FD0722F7
:104DE00001214B48FFF76EFD0DE0042201214848E8
:104DF000FFF768FD072201214548FFF763FD02E048
:104E000000BF00E000BFBB6806331B789B08DBB225
:104E100003F00103BB75BB7D082219463C48FFF730
:104E200051FDBB7D002B03D0384BFF221A7102E0ED
:104E3000364B00221A71BB6806331B78DB08DBB2E5
:104E400003F00103BB75BB7D092219463048FFF70B
:104E500039FDBB7D002B03D02C4BFF225A7102E0A1
:104E60002A4B00225A71BB6806331B7803F00103FA
:104E7000BB75BB7D0A2219462548FFF723FDBB6899
:104E800006331B785B08DBB203F00103BB75BB7D07
:104E90000B2219461E48FFF715FDBB6805331B782A
:104EA0001B09DBB203F00103BB75BB7D0C22194665
:104EB0001748FFF707FDBB6805331B785B09DBB2BA
:104EC00003F00103BB75BB7D0D2219461048FFF7A7
:104ED000F9FCBB6805331B789B09DBB203F00103C7
:104EE000BB75BB7D0E2219460948FFF7EBFCBB687A
:104EF00005331B78DB09BB75BB7D0F2219460448BF
:104F0000FFF7E0FC0023FB751EE000BF200000203F
:104F100084070020104B1888FB7D1B010F4A1344A7
:104F2000FA7D194603F072FB03467B757B7D002BEF
:104F300006D07A7DFB7D11461846FFF795FC00E010
:104F400000BFFB7D0133FB75FB7D0F2BE2D900BF5A
:104F500000BF1837BD4680BD8407002088070020A9
:104F600080B584B000AF78600023FB607B68002BC5
:104F70001FD04FF4007178681CF056FDF860FB6894
:104F8000002B18D0FB68B3F5007F14D20D4B93F8BB
:104F90004130DBB2202B10D1FA6879680A481CF046
:104FA000D2FDFB689BB21A460749064814F0EEF89A
:104FB00004E000BF02E000BF00E000BF1037BD46C4
:104FC00080BD00BF4C1C0020EC0C002080B487B0DA
:104FD00000AF87ED010A234B3B61234BFB6097ED4C
:104FE000017AD7ED047AB4EEE77AF1EE10FA01D542
:104FF000002330E097ED017AD7ED037AB4EEE77A3B
:10500000F1EE10FA01DD642325E097ED017AD7ED8A
:10501000047A77EE676A97ED037AD7ED047A37EE74
:10502000677AC6EE877A9FED117A67EE877AB6EED9
:10503000007A77EE877AFDEEE77A17EE903A7B6199
:105040007B69642B01DD64237B617B69002B01DCC0
:1050500000237B617B6918461C37BD465DF8047BE5
:10506000704700BF6666A2419A99BB410000C842E2
:10507000F0B593B008AF786018F09EFF0346FB6070
:105080001423FB82002387F8273000233B62002390
:10509000FB610023BB6100233B61804B1B78052B28
:1050A00059D801A252F823F0C1500008F35000086B
:1050B000F3500008C1500008C150000825510008F5
:1050C000774BD3ED0B7A9FED777A67EE877AFDEE1B
:1050D000E77A17EE903AFB61714BD3ED0D7A9FEDB5
:1050E000717A67EE877AFDEEE77A17EE903ABB6148
:1050F00032E06B4BD3ED0B7A9FED6A7A67EE877ADD
:10510000FDEEE77A17EE903AFB61654BD3ED117A2D
:105110009FED647A67EE877AFDEEE77A17EE903AB4
:10512000BB6119E05E4BD3ED0B7A9FED5E7A67EEC3
:10513000877AFDEEE77A17EE903AFB61584BD3ED94
:10514000157A9FED587A67EE877AFDEEE77A17EECB
:10515000903ABB6100E000BF514BD3ED037AB0EE53
:10516000670AFFF733FF386197F82730013387F874
:10517000273097F82730012B14D14B4BD3ED027A0F
:10518000FDEEE77A17EE903A02933B690193BB6913
:105190000093FB69454A642145481CF00FFB444BD2
:1051A0003B6225E097F82730022B21D1002387F8B6
:1051B00027303D4BD3ED017ABDEEE77A3A4BD3ED84
:1051C000007AFDEEE77A17EE902A374BD3ED027A9C
:1051D000FDEEE77A17EE903A0193009217EE103A3F
:1051E000344A4FF4007134481CF0E8FA324B3B6209
:1051F000324BDB78012B29D1304B0022DA70284B5F
:10520000B3F908301E46264BDB691A462C4B1B8827
:1052100019462B4B5B881846294B9B881C46284B0C
:10522000DB881D4600230793002306930023059384
:10523000049503940290019100923346214A4FF461
:10524000007121481CF0BAFA1F4B3B62144B93F8D3
:105250002130002B02D1386AFFF782FEFB8A07EE6D
:10526000903AB8EE677AF7EE006AC6EE877A9FED5D
:105270000D7A67EE877AFCEEE77A17EE902A4FF404
:105280007A7302FB03F3114AA2FB03239A0907F185
:105290000C031146184618F0C3FCF8E6DC17002092
:1052A0004402002000007A44B81000201860020870
:1052B0008808002028600208EC080020BC060020B6
:1052C000080F002038600208EC0A0020D34D62105D
:1052D00080B500AF012017F0B0FC0346124A1360FE
:1052E000114B1B68002B01D100BFFDE70F4B0022C3
:1052F000DA7000210E4812F009FB04210C4812F06C
:1053000005FB00210B4812F001FB094B1B68002232
:105310009A63084B1B6800225A63054B1B680022E6
:105320005A6300BF80BD00BF040F0020EC0E0020B8
:105330002C1B0020741B002080B582B000AF0346F8
:10534000FB710B46BB7113467B71154B1B684FF00D
:10535000FF31184617F00CFF0346012B1BD1114BF0
:105360001B68FA799A63104B1B68BA795A630D4B24
:105370001B687A795A630D4AFB7913700B4ABB7923
:1053800053700A4A7B799370054B186800230022FA
:10539000002117F06BFC00BF0837BD4680BD00BF81
:1053A000040F00202C1B0020741B0020EC0E00209A
:1053B00080B500AF064B5B69002B07D0044B5B69DF
:1053C000184618F0B9FB024B00225A6100BF80BD9D
:1053D000EC0E002080B485B000AF03460A4687ED8E
:1053E000020AFB731346BB73FB7B07EE903AB8EEE1
:1053F000E77ABA7BFB7BD31A07EE903AF8EEE76ABE
:10540000D7ED027A66EEA77A77EE277AFCEEE77A96
:10541000C7ED017A3B79DBB218461437BD465DF81B
:10542000047B704780B586B000AF786000237B6155
:1054300048E07B6907EE903AF8EE676A2A4BDB6832
:1054400007EE903AB8EE677AC6EE877AC7ED047A2F
:10545000254B1B78244A127A97ED040A1146184608
:10546000FFF7B8FF0346FB731F4B5B781E4A527A67
:1054700097ED040A11461846FFF7ACFF0346BB73CD
:10548000194B9B78184A927A97ED040A11461846F0
:10549000FFF7A0FF03467B737A7BB97BFB7B184643
:1054A000FFF74AFF104B1B694FF47A7202FB03F3BC
:1054B0000E4AA2FB03239B09184618F031FC7B69B6
:1054C00001337B61084BDB687A699A42B1D9064B9C
:1054D00000221A71044B00225A61002018F02CFBA4
:1054E00000BF1837BD4680BDEC0E0020D34D6210C2
:1054F00080B590B000AF87ED050A3861F960BA60F9
:105500007869FBF701F802460B469FED6D1B43ECF3
:10551000102B1DF04BF953EC102B10461946FBF7DE
:1055200043FB03467B614FF07E533B634FF07E535A
:10553000FB6297ED057ADFED646AC7EE267AFDEE31
:10554000E77A17EE902A614B83FB0231D317C91A11
:105550000B465B000B445B00D31ABB62D7ED057AA8
:10556000DFED596A87EEA67ABB6A07EE903AF8EE4D
:10557000E77A77EE677AC7ED097AB7EE007AD7ED6A
:105580000C7A77EE677A97ED0B7A67EE277AC7ED9C
:10559000087A97ED097AD7ED0C7A67EE277AB7EE9D
:1055A000007A77EE677A97ED0B7A67EE277AC7ED88
:1055B000077AB7EE007AD7ED097A37EE677AD7ED3A
:1055C0000C7A67EE277AB7EE007A77EE677A97ED76
:1055D0000B7A67EE277AC7ED067ABB6A052B39D8B6
:1055E00001A252F823F000BF015600080F56000830
:1055F0001D5600082B56000839560008475600086B
:10560000FB6AFB63BB69BB633B6A7B632AE0FB69A4
:10561000FB63FB6ABB633B6A7B6323E03B6AFB6320
:10562000FB6ABB63BB697B631CE03B6AFB63FB6992
:10563000BB63FB6A7B6315E0BB69FB633B6ABB63CF
:10564000FB6A7B630EE0FB6AFB633B6ABB63FB693F
:105650007B6307E04FF000037B637B6BBB63BB6B3B
:10566000FB6300BFD7ED0F7A9FED197A67EE877A5B
:10567000FCEEE77AC7ED017A3B79DAB23B691A7042
:10568000D7ED0E7A9FED127A67EE877AFCEEE77A15
:10569000C7ED017A3B79DAB2FB681A70D7ED0D7A63
:1056A0009FED0B7A67EE877AFCEEE77AC7ED017A19
:1056B0003B79DAB2BB681A7000BF4037BD4680BD87
:1056C000000000000080764000007042ABAAAA2AC9
:1056D00000007F430000000080B588B000AF786014
:1056E0004FF00003FB610023BB6134E0BB6907EEB0
:1056F000903AB8EE677ADFED386AC7EE267AC7EDE2
:10570000057A364B1B7897ED050AFF211846FFF7FF
:1057100061FE0346FB74314B5B7897ED050A00216F
:105720001846FFF757FE0346BB742C4B9B7897ED4A
:10573000050A00211846FFF74DFE03467B747A7C6C
:10574000B97CFB7C1846FFF7F7FD0A2018F0E8FA51
:10575000BB690133BB61BB69642BC7D907F10E027A
:1057600007F10F0107F11003184697ED070AFFF73D
:10577000BFFE3B7CF97BBA7B1846FFF7DDFDD7ED1A
:10578000077AB6EE007A77EE877A17EE900AFAF784
:10579000BBFE02460B469FED0E1B43EC102B1DF08B
:1057A00005F853EC102B10461946FBF7FDF903469C
:1057B000FB610A4B1B694FF47A7202FB03F3084A40
:1057C000A2FB03239B09184618F0AAFA00BFC5E7FD
:1057D000000000000080764000004843EC0E0020EE
:1057E000D34D621080B588B000AF78600023FB779E
:1057F0000023FB740023BB6134E0BB6907EE903AE1
:10580000B8EE677ADFED2D6AC7EE267AC7ED037A28
:105810002B4B1B7897ED030A00211846FFF7DAFDA2
:105820000346FB72264B5B7897ED030A002118466E
:10583000FFF7D0FD0346BB72214B9B7897ED030A1F
:1058400000211846FFF7C6FD03467B727A7AB97AC3
:10585000FB7A1846FFF770FD0A2018F061FABB6961
:105860000133BB61BB69642BC7D900237B611AE09C
:10587000FB7F002B0CBF01230023DBB2FB77FB7FF8
:10588000002B01D1002300E0FF23FB74FB7C0022EE
:1058900000211846FFF750FD4FF4AF7018F040FAA2
:1058A0007B6901337B61064BDB685B007A699A4256
:1058B000DED34FF4FA6018F033FAD6E7000048431D
:1058C000EC0E00200000000090B589B000AF7860B9
:1058D0000023FB6134E0FB6907EE903AB8EE677A8B
:1058E000DFED556AC7EE267AC7ED037A534B1B7876
:1058F00097ED030A00211846FFF76CFD0346FB7283
:105900004E4B5B7897ED030A00211846FFF762FDC6
:105910000346BB72494B9B7897ED030A002118465A
:10592000FFF758FD03467B727A7AB97AFB7A1846FC
:10593000FFF702FD0A2018F0F3F9FB690133FB6160
:10594000FB69642BC7D90023BB616AE0BB6907EE22
:10595000903AF8EE676A394BDB6807EE903AB8EE9A
:10596000677AC6EE877AC7ED057AD7ED057A9FED9F
:10597000347A67EE877A17EE900AFAF7C5FD024689
:105980000B4643EC102B1CF0C7FF51EC100B28A367
:10599000D3E90023FAF710FE02460B4610461946DB
:1059A000FBF7E2F80346FB74244B1B7A1A46FB7C98
:1059B00002FB03F3234A82FB03121A44D211DB17C2
:1059C000D31AD8B21D4B5B7A1A46FB7C02FB03F359
:1059D0001C4A82FB03121A44D211DB17D31AD9B224
:1059E000164B9B7A1A46FB7C02FB03F3154A82FB9B
:1059F00003421A44D211DB17D31ADBB21A46FFF75F
:105A00009BFC0E4B1B694FF47A7202FB03F30E4AA8
:105A1000A2FB03239B09184618F082F9BB690133E6
:105A2000BB61064BDB68BA699A428FD98BE700BF2E
:105A30000000000000E06F4000004843EC0E002032
:105A4000D00F494081808080D34D621080B586B0F0
:105A500000AF786000237B6134E07B6907EE903A09
:105A6000B8EE677ADFED296AC7EE267AC7ED037ACA
:105A7000274B1B7897ED030A00211846FFF7AAFC75
:105A80000346FB72224B5B7897ED030A0021184610
:105A9000FFF7A0FC0346BB721D4B9B7897ED030AF2
:105AA00000211846FFF796FC03467B727A7AB97A92
:105AB000FB7A1846FFF740FC0A2018F031F97B69A1
:105AC00001337B617B69642BC7D90023FB74FB7CAA
:105AD000002B0CBF01230023DBB2FB74FB7C002BEB
