:020000040800F2
:100000005804012061020008A77A00080D64000866
:10001000A57A00088519000825DF00080000000007
:10002000000000000000000000000000A101000826
:10003000991F000800000000FD01000891B70008AA
:100040007B0200087B0200087B0200087B0200089C
:100050007B0200087B0200087B0200087B0200088C
:100060007B0200087B0200087B0200087B0200087C
:100070000D1E00087B0200087B020008191E000804
:100080007B020008251E00087B0200087B02000896
:10009000D91900087B0200087B0200087B020008D7
:1000A0007B0200087B0200087B0200087B0200083C
:1000B00051B800085DB8000869B800087B02000864
:1000C0007B0200087B0200087B0200087B0200081C
:1000D0007B020008B1BF0008BDBF0008C9BF00080F
:1000E0007B0200087B0200087B0200087B020008FC
:1000F0007B0200087B0200087B0200087B020008EC
:100100007B0200087B0200087B0200087B020008DB
:100110001DBC00087B0200087B02000875B80008BF
:10012000311E00087B0200087B0200087B020008E9
:100130007B0200087B0200087B0200087B020008AB
:100140007B020008311A00087B020008517E00087B
:100150007B0200087B0200083D1E00087B020008AD
:100160007B0200087B0200087B0200087B0200087B
:100170007B0200087B0200087B02000800000000F0
:100180007B0200087B020008DFF810D000F086FC3C
:1001900000480047E11D0108AFF30080580401202A
:1001A0002C4B19680868B0E8F04F80F30988BFF35A
:1001B0006F8F4FF0000080F311887047000000003F
:1001C00008480068006880F308884FF0000080F35A
:1001D000148862B661B6BFF34F8FBFF36F8F00DF35
:1001E00000BF00BF08ED00E0DFF80C00016841F43B
:1001F00070010160704700BF88ED00E0EFF30980F7
:10020000BFF36F8F134B1A681EF0100F08BF20ED5D
:10021000108A20E9F04F106009B44FF0500080F3CD
:100220001188BFF34F8FBFF36F8F14F07FF94FF03A
:10023000000080F3118809BC19680868B0E8F04F25
:100240001EF0100F08BFB0EC108A80F30988BFF3CE
:100250006F8F704740000020EFF30580704700006B
:100260000648804706480047FEE7FEE7FEE7FEE750
:10027000FEE7FEE7FEE7FEE7FEE7FEE741B800081F
:10028000890100082DE9F05F0546002092469B4653
:1002900088460646814640241BE02846414647469C
:1002A000224600F0EEF953465A46C01A914110D347
:1002B00011461846224600F0D5F92D1A67EB0108C1
:1002C0004F4622460120002100F0CCF917EB00092F
:1002D0004E41201EA4F10104DFDC484631462A4687
:1002E0004346BDE8F09F40EA01039B0703D009E0C5
:1002F00008C9121F08C0042AFAD203E011F8013B12
:1003000000F8013B521EF9D27047D2B201E000F86A
:10031000012B491EFBD270470022F6E710B51346A9
:100320000A4604461946FFF7F0FF204610BD421E5C
:1003300012F8013F002BFBD111F8013B02F8013B01
:10034000002BF9D17047421C10F8011B0029FBD18A
:10035000801A70472DE9FE4F804681EA0300C00FE6
:100360000C46009021F0004123F00045B8EB02005C
:10037000A94105D24046214690461C460B460246FE
:1003800023F00040104347D0270DC7F30A00C3F302
:100390000A510290401A019040286BDAC3F313000F
:1003A00040F4801B0098924620B10023D2EB030A50
:1003B00063EB0B0B01985946C0F14002504600F028
:1003C00051F906460D4650465946019A00F069F922
:1003D00010EB08006141002487EA115284EAE773B8
:1003E0001A4340D0009A62B3019A012A4FEA075299
:1003F00015DC001B61EB02014FF0004202EA0752DC
:10040000CDE90042001C41F5801132462B4600F038
:10041000A0F903B0BDE8F08F40462146F9E7001B84
:1004200061EB0201001C41F5801300185B412018AC
:10043000A2F5001747EB030140EAD570B6196D41EC
:1004400011E06D084FEA360645EAC0754FEA0752DB
:10045000001B61EB0201001C41F5801149084FEAC5
:1004600030000019514132462B4603B0BDE8F04F31
:1004700000F060B90098012240000023D0EB020296
:1004800063EBE073009821464FEAE074B8EB00009C
:1004900061EB0401E9E783F000435BE781F0004191
:1004A00058E72DE9FE4F81EA030404F0004421F0EF
:1004B000004100944FF0000B23F0004350EA010488
:1004C0005ED052EA03045BD0C3F30A54C1F30A5569
:1004D0002C44A4F2F3340194A0FB0254C1F31301A1
:1004E00041F48011C3F3130343F4801301FB02446E
:1004F00000FB034E840A970A44EA815447EA835773
:10050000A4FB076802958D0A05FB07854FEA932C2B
:1005100004FB0C542705029D4FEA065847EA16379C
:10052000B5EB08056EEB070C870E920E47EA8117B4
:1005300042EA8312A7FB0201B6EB0B0164EB000455
:100540002B0D43EA0C335E1844EB1C50DA4651463F
:10055000E7FB0201C5F313044FEA0B3343EA1453DC
:100560004FEA0432019C43EA0603A4F10C0402940E
:10057000009CCDE900B400F0ECF803B0BDE8F08FCA
:1005800000200146F9E70EB5C10F80EAE07008448B
:10059000CA07002140F233438DE80E000A460B469D
:1005A00000F0D7F803B000BDC1F30A5210B5C1F393
:1005B000130140F2FF3341F480119A4201DA002026
:1005C00010BD40F233439A42A2F2334203DC52425E
:1005D00000F057F810BD904010BD00F0004230F020
:1005E00000400AD0C10D01F56071C0F3160042EA67
:1005F0000151C2084007114370470020014670476F
:1006000001F0004330B421F0004150EA010206D06D
:100610000A0DA2F56072C1F31301002A02DC30BC9E
:1006200000207047440F44EAC104C100E01830BC08
:1006300000EBC25000F047B830B50B460146002031
:100640002022012409E021FA02F59D4205D303FA94
:1006500002F5491B04FA02F52844151EA2F1010215
:10066000F1DC30BD202A04DB203A00FA02F1002040
:1006700070479140C2F1200320FA03F319439040E0
:100680007047202A04DB203A21FA02F0002170474B
:1006900021FA02F3D040C2F12002914008431946EA
:1006A0007047202A06DBCB17203A41FA02F043EAD2
:1006B000E07306E041FA02F3D040C2F1200291401B
:1006C0000843194670470029A8BF7047401C4900DD
:1006D00008BF20F00100704710B4B0FA80FC00FAA7
:1006E0000CF050EA010404BF10BC704749B1CCF1D2
:1006F000200421FA04F411FA0CF118BF012121435E
:100700000843A3EB0C01CB1D4FEA00614FEA102018
:1007100042BF002010BC704700EBC35010440029BA
:10072000A4BF10BC7047401C490008BF20F0010066
:1007300010BC704710B5141E73F1000408DA401C99
:1007400041F1000192185B411A4301D120F00100F0
:1007500010BD2DE9F04D92469B4611B1B1FA81F2E0
:1007600002E0B0FA80F220329046FFF77BFF0446A9
:100770000F4640EA0A0041EA0B0153465A46084335
:1007800013D0114653EA010019D0C8F14002504677
:10079000FFF777FF05460E46504659464246FFF79B
:1007A00061FF084305D0012004E020463946BDE83A
:1007B000F08D0020054346EAE0762C4337430A9843
:1007C0006305E40AA0EB08000022FD0A44EA47544E
:1007D0000A3002D500200146E9E7010510196941F8
:1007E000DDE9084500196941BDE8F04DA2E72DE9B2
:1007F000F04D81EA030404F0004B21F0004514465B
:100800004FF0000A23F0004150EA050220D054EADC
:1008100001021DD0C5F30A570246C5F31303C1F305
:100820001300C1F30A5640F4801543F48013A7EB7C
:100830000608101BD64608F2FD3873EB050002D3FC
:1008400008F1010801E092185B41B8F1000F03DAEA
:1008500000200146BDE8F08D00204FF480110646CF
:1008600084460EE0171B73EB050705D3121B63EBE1
:10087000050306434CEA010C49084FEA3000921880
:100880005B4150EA0107EDD152EA030012D082EA3F
:10089000040083EA0501084305D0101BAB4106D2D2
:1008A0000122002306E000224FF0004302E06FF037
:1008B000010253101AEB06004CEB085110EB0A0032
:1008C00041EB0B01BDE8F04DFFF734BF70B521F0EF
:1008D000004303430CD0C1F30A550024D5EB0405B3
:1008E00064EB0403D617AD1AB34102DB00200146C6
:1008F00070BD201841EB025170BD00002DE9F041A0
:10090000054621F000400C46284309D0C4F30A50A4
:1009100040F23341884205DD28462146BDE8F0819A
:100920002846FBE740F2FE31884210DC0CDB4FEA40
:10093000043040EA155050EA053105D0104804F063
:10094000004101430020E9E700200146E6E7A0F26C
:1009500033404642C6F1400228462146FFF782FE58
:1009600007468846284621463246FFF78AFE434618
:100970003A46FFF7DFFE3246BDE8F041FFF772BEB0
:100980000000F03F2DE9FE4FC3F30A5701F0004588
:100990000024C1F30A56C3F31303C1F3130143F454
:1009A000801312EB020AA64641F48011009543EB36
:1009B000030CA7F1010B16E0B0EB0A0061EB0C0190
:1009C000071E71F1000707DA4FF00008D0EB0800AE
:1009D00085F0004568EB0101171A73EB0107EBD3B3
:1009E000761E001849415E45F6DA50EA010209D048
:1009F000CDE900E5002213460296FFF7AAFE03B0F8
:100A0000BDE8F08F20460099F9E7C1F30A52C1F31F
:100A1000130140F2FF3341F480119A4202DA0020C0
:100A20000146704740F233439A42A2F2334202DC5D
:100A30005242FFF726BEFFF715BE000030B5041E78
:100A400071F1000404DB4FF00044404264EB01010B
:100A5000141E73F1000405DB1C464FF000435242A4
:100A600063EB04038B4208BF824230BD30B5041EE5
:100A700071F1000404DB4FF00044404264EB0101DB
:100A8000141E73F1000405DB1C464FF00043524274
:100A900063EB0403994208BF904230BD064C074DFA
:100AA00006E0E06840F0010394E80700984710343E
:100AB000AC42F6D3FFF76CFB4C6601086C6601088C
:100AC0002DE9F04D00231A461B1A8A4103DB002052
:100AD0000146BDE8F08DC1F30A52C1F3130141F4A0
:100AE00080154FF0000BD10702D100186D41521E46
:100AF0000027044640F2FF11384601EB620A3E46E9
:100B00008046024600204FF48011FFF7BAFDC2195B
:100B10007141BB1846EB0100B4EB030C75EB000C04
:100B200004D3E41A65EB000517460E46241908F1B4
:100B300001006D4180463428E3DDF91946EB0600DB
:100B4000091BA84103D24FF0FF32134601E00022F7
:100B500013461BEB070046EB0A51BDE8F04DFFF7CB
:100B6000E9BD0EB540F2334102910021CDE90011FB
:100B70000A460B46FFF7EDFD03B000BD70B5C1F3AB
:100B80000A5201F000450024C1F3130140F2FF3383
:100B900041F480119A4201DA002070BD40F23343E3
:100BA0009A42A2F2334203DC5242FFF76AFD00E0B0
:100BB00090402C43F1D0404270BD70B58C1810F8B5
:100BC000015B15F0070301D110F8013B2A1106D192
:100BD00010F8012B03E010F8016B01F8016B5B1EAC
:100BE000F9D12B0705D40023521E0DD401F8013B87
:100BF000FAE710F8013BCB1A921C03E013F8015BF3
:100C000001F8015B521EF9D5A142D8D3002070BD76
:100C100010B50146806B026C12F0500F05D0026CCB
:100C2000D20626D501F07CFD10BD016C41F40071A7
:100C3000016401688A6812F0405F17D1027EAAB988
:100C4000CA6A12F4700F02D08A6852050ED44A683C
:100C500022F020024A60016C21F480710164016C71
:100C6000C90403D4016C41F00101016401F056FD97
:100C700010BD806BC26CBDE810400846104710B52F
:100C8000806B40210164416C41F00401416401F03A
:100C900047FD10BD10B5806B01F041FD10BD000097
:100CA000464910B54A6822F440324A604A684368AF
:100CB0001A434A6001684A6822F480724A600168F7
:100CC0004A68036942EA03224A6001684A6822F0DE
:100CD00040724A6001684A6883681A434A60016842
:100CE0008A6822F400628A6001688A68C3681A43CD
:100CF0008A60816A6FF07062D14201688A6822F06E
:100D000070628A6001688A680CD0836A1A438A60BC
:100D100001688A6822F040528A6001688A68C36A62
:100D20001A4301E022F040528A6001688A6822F08A
:100D300002028A6001688A68037E42EA43028A608E
:100D400090F82010002901684A680FD042F4006230
:100D50004A6001684A6822F460424A6001684A6851
:100D6000174C436A04EB43331A4301E022F4006258
:100D70004A600168CA6A22F47002CA620168CA6ADB
:100D8000838B104C04EB03531A43CA6201688A68D0
:100D900022F400728A6001688A6890F8303042EA72
:100DA00043228A6001688A6822F480628A6001684E
:100DB0008A68406942EA8020886010BD00230140B3
:100DC00000E0FFFF0000F0FFA0220249024801F00E
:100DD0001FBD0000F8E40020600600202DED028B0E
:100DE00088B014F009FA00255D4F2E469FED5D8A0C
:100DF000DFF874B1DFED5D8ADFF87481DFF874A18C
:100E00005D4CA946079000223878134606281FD269
:100E1000DFE800F0030E0E03032694ED0A0A20EE2D
:100E2000080ABDEEC00A10EE102A94ED0C0A09E083
:100E300094ED0A0A20EE080ABDEEC00A10EE102A50
:100E400094ED100A20EE080ABDEEC00A10EE103A2A
:100E500094ED030A10EE100A58450CDA484626E0D5
:100E600094ED0A0A20EE080ABDEEC00A10EE102A20
:100E700094ED140AE6E710EE100A4049884211DCAE
:100E800030EE680A9FED3E1AC0EE010A9FED3D1A52
:100E9000B6EE000A00EE810ABDEEC00A10EE100A9E
:100EA000642801DD642002E0002800DC00206D1CC5
:100EB000EDB2012D02D0022D0DD026E098ED020AF0
:100EC000009031A1BDEEC00A33488DED010A0DF04E
:100ED0007DFC314E19E098ED020A2F480025BDEE49
:100EE000C00A2EA164308DED000A98ED000ABDEE17
:100EF000C00A10EE103A98ED010ABDEEC00A10EEDD
:100F0000102A0DF063FC244E64369AF80300012881
:100F100017D126498AF80390CA88CDE90329CDF86C
:100F20001490CDF8189088884A8809880091CDE9F6
:100F30000120B4F908201EA12548A3690DF046FC44
:100F4000234E607F38B93046FFF7FDF982B2314653
:100F5000204804F077FD322107A813F021F952E769
:100F6000D8ED002000007A446666A2416666A24180
:100F700080E6002052030020640500209A99BB41BE
:100F8000A09949400000C8427B4125643A25643A53
:100F900025643A25647D240072E700207B422564A5
:100FA0003A25643A25647D2400000000E001002019
:100FB0007B4325643A25643A25643A25643A2564DE
:100FC0003A25643A25643A25643A25647D24000074
:100FD000D6E90020980900202DE9F0413B4C00267D
:100FE000054694F806C024A32FA2BCF1000F0BD035
:100FF000204600274079411CC9B2BCF1010F16D030
:10100000BCF1020F34D125E030490220432D09798B
:1010100002D0442D05D02BE02B2929D10121A1712B
:1010200002E02B2924D1A0710126607120E01A5C16
:10103000AA4209D00D38102808D8A5F13000092897
:1010400002D93138192801D8012600E0A771617151
:10105000184607E0105CA84201D1012600E0A77104
:1010600061711046FFF76FF96179884200D1A7716D
:1010700025713046BDE8F0812B434F4E4E45435419
:10108000494E473C3C58583A58583A58583A58589C
:101090003A58583A58580D0A2B434F4E4E45435430
:1010A00045440D0A000000002B444953433A535570
:1010B00043434553530D0A2B52454144590D0A2BC6
:1010C0005041495241424C450D0A0000480300205E
:1010D0002DE9F041484C0026054694F809E035A377
:1010E0003CA240A1BEF1000F10D02046002790F88E
:1010F00008C0BEF1010F0CF10100C0B223D0BEF157
:10110000020F36D0BEF1030F50D13FE03A48022122
:10111000432DC07904D04F2D0AD0442D0CD045E08A
:101120002B2803D0432841D001263FE0012006E0D0
:1011300043283BD1617203E02B2837D10320607232
:101140000126217232E013F80C10A9420BD0ACF149
:101150000D0CBCF1100F08D8A5F13001092902D9F6
:101160001139192901D8012600E06772207218464A
:1011700008E012F80C10A94201D1012600E06772C4
:1011800020721046FFF7DFF8217A0CE011F80C20EE
:10119000AA4201D1012600E0677220720846FFF7DB
:1011A000D2F8217A401C884200D16772E57130463E
:1011B000BDE8F0812B434F4E4E454354494E473CCA
:1011C0003C58583A58583A58583A58583A58583A51
:1011D00058580D0A434F4E4E45435445440D0D0A91
:1011E000000000002B444953433A535543434553B1
:1011F000530D0D0A0000000048030020DFF8C491E1
:101200006E4EDFF8BCA1DFF8C0814FF07C5B2DEDA6
:10121000028B88B0002509F104049FED6C8A00BFA1
:101220004FF4FA7204A9306813F030FD01280BD096
:10123000257084ED028A84ED038AA571E57025711D
:101240006570A5706571EBE761480FC88DE80F0008
:1012500001202070BDF8140040BA00B200EE100A60
:10126000B8EEC01A9FED5B0AC1EE000ACDED010A8F
:10127000BDF8180040BA00B201EE100AB8EEC11A6B
:10128000C1EE001ACDED031A9AF80000022801D031
:1012900005280DD150484168594503DB4F4949683D
:1012A000594505DAB6EE000A20EE800A8DED010AF6
:1012B0009DF81630E3719DF81700C0EB0010400058
:1012C00000EE100AB8EE400ADFED450A80EE201A63
:1012D00084ED031A9DF81A0000F0010CC0F34012CF
:1012E00084F806C0C0F30011E2702171C0F3C0079A
:1012F000A770C0F380006070114438440818607112
:1013000002D0BCF1000F05D08DED038A8DED028A6D
:101310008DED018AAB2B08D13249D8F80C008842F8
:1013200003DD8DED018A8DED028A9DF81B0080287A
:1013300009D9C0F58070A0EB0010400000EE100A43
:10134000B8EEC00A06E0C0EB0010400000EE100A44
:10135000B8EE400A012084ED020A9DED010AB5EEC7
:10136000C00AF1EE10FA26D19DED020AB5EEC00AD0
:10137000F1EE10FA1FD19DED030AB5EEC00AF1EEB1
:1013800010FA18D199F80020521CD2B289F8002026
:101390000A2A03D900200A2289F8002098F811109F
:1013A00001297FF450AF00283FF44DAF002168467B
:1013B0000DF036F834E789F80050EFE71C00002004
:1013C000D8ED002034050020640500200000000056
:1013D000E060010800007A4438040020680400201E
:1013E0000000C8420000C4412DED068B00208EB0E5
:1013F00004468DF800004FF0010905469FEDF78A7D
:10140000DFF8DCA30646F0EE488A9FEDF69ADFEDA2
:10141000F69ADFF8D8B300BFF5484FF0FF326946BF
:10142000006813F033FC0128F6D19DF800000DF0A0
:1014300075F9412C05D19DF80000412801D106B96C
:101440000126EC480DF1040C0FC88CE80F009DF844
:101450000000FFF73DFE07469DF80000FFF7BCFDCA
:10146000384410F0FF0FD7D19DF8000008F072FB50
:101470009DF800004B2804D04A2804D0492804D005
:1014800005E0022102E0012100E000218946DA4A5C
:10149000A0F14001C9B24B1E82F80190072B02D87F
:1014A000403C8C4200D10D460446904615709FED9D
:1014B000D30A052D27D008DC012D0FD0022D18D01E
:1014C000032D19D0042D59D119E0062D27D0072D51
:1014D00035D0082D36D01A2D50D142E0BBF9080086
:1014E00000EE100AB8EEC00AC0EE290ACDED020ADD
:1014F00039E0BBF9080015E08DED028A1AE0BBF96E
:101500000800404220E0BBF90800404200EE100A0B
:10151000F8EEC00A80EEA90A8DED020A23E0BBF9BD
:101520000800404200EE100AB8EEC00AC0EE290AD8
:10153000CDED020A8DED038A8DED049A17E08DED55
:10154000028A09E0BBF9080000EE900AF8EEE00A12
:1015500080EEA91A8DED021A8DED038A8DED040A35
:1015600005E08DED028A8DED038A8DED048A2EB1A2
:10157000002101A80CF054FF00B100269DF80000E6
:10158000582802D0592804D00DE0BBF80810643167
:1015900002E0BBF808106439ABF80810C821DAF88B
:1015A0001020012090479DF8000061280ED062288D
:1015B00012D063281CD064281ED0652854D0662819
:1015C0005BD0672863D0682864D03FE08C4FB86850
:1015D0008047F868804705E09BF8111031B1002181
:1015E0008BF81110C821DAF810202DE00121F7E75F
:1015F00001218BF81010F5E79BF81300012808D0A3
:101600007D480A38C178491CC9B2C170032907D086
:1016100022E0794900200A39C8708BF81300E1E70D
:10162000002706E0774850F8270009F0FEFD7F1CF0
:10163000FFB275484078B842F4D801208BF8130007
:10164000DAF810204FF47A71012090479DF80000DD
:101650007B2822D07D2833D067480A3800780128BB
:101660001FD0022830D008E19BF8151019B10021D5
:101670008BF81510B6E70121FAE79BF81C1021B191
:101680005FF000018BF81C10ACE70121FAE710F0C5
:1016900011FDA7E710F016FDA4E7574901200A390C
:1016A0000870554932220A399DF800704878B0FB1D
:1016B000F2F302FB1303554A401CD7544870DCE098
:1016C0004D4802210A3801705048C178502908D08D
:1016D00057290AD0407823286DD0474F0A3F7878A1
:1016E0005EE0012188F80310BCE0012788F8027051
:1016F000474809F04EFF474809F04BFF464809F0BC
:1017000048FF8DF804708DED028A8DED038A8DED12
:10171000048A002101A80CF083FEC82012F01AFDF3
:1017200012F040FCBBF908100591DBF81800069098
:10173000022105A80CF006FC074612F053FCCFBBB3
:101740004FF47A71DAF810208AE07978081AFEF7F7
:101750001AFF41EC110B9FED310B0DF07DFEB878B7
:101760002A4980460844B0EE40AA10F8010CF0EE79
:1017700060AA3038FEF707FF53EC1A2BFEF791FEF4
:1017800041EC1A0B18EE900AFEF727FF53EC1A2BC8
:10179000FEF7E0FDFEF734FF08EE900AA8F1010025
:1017A000B870C0B20428D0D2184840783038062823
:1017B00058D201E056E069E0DFE800F0030A343C6B
:1017C000444CBDEEE80A10EE100AABF8080044E005
:1017D000BCEEE80A8BED060A3FE0000000000000C6
:1017E000CC000020DB0F49BF00007A4464050020D4
:1017F00014000020D060010852030020DB0F493F95
:101800009401002054020020D8ED002040E7002081
:10181000E80100200C02002030020020000000003F
:1018200000002440BCEEE80A10EE100A80B209F075
:10183000B3FB12E0BCEEE80A10EE100A80B209F029
:1018400075FB0AE0BCEEE80A10EE100A80B209F05F
:1018500037FB02E0BCEEE80A7DE0DAF81020C82190
:101860000120904745480021F0EE488A0170417000
:10187000817032214248FEF74FFDBBF9082040F647
:10188000B83158468A426CDD01816EE0F0EE488A3C
:101890004FF00008242105A8FEF73EFD37484078A8
:1018A0003228DFD8364A7D21F2EE040A1154002195
:1018B00005AF1CE0A0F13003092B0AD800EE103A66
:1018C000B0EE681AB8EEC00AF0EE408A41EE208A07
:1018D0000BE03A2809D107EB8800C0ED008A08F137
:1018E000010000F0FF08F0EE488A491CC9B2505CC4
:1018F0007D28DFD107EB8800C0ED008A9DED050A49
:10190000BDEEC00A10EE101AABF808109DED060AE5
:10191000BCEEC00A8BED060A9DED070ABCEEC00ABC
:1019200010EE100A80B209F037FB9DED080ABCEEFC
:10193000C00A10EE100A80B209F0F8FA9DED090A0B
:10194000BCEEC00A10EE100A80B209F0B9FA9DEDA3
:101950000A0ABCEEC00A10EE100A80B209F07AFA48
:101960007BE7002A01DA00218EE7816964297FF68E
:1019700053AD6421CBF818104EE500004803002059
:1019800040E70020FEE7000030B58BB0012012F0E8
:10199000C9FF104CE0602078012818D000200125F4
:1019A000CDE9060505900090019002900390049007
:1019B0000E20CDE908506946606801F04DF8606876
:1019C00001F0C8FC0221606800F0CCFF25700BB06C
:1019D00030BD000038010020014801F054B900007A
:1019E0000807002030B58BB0012012F09BFF0F4C90
:1019F00020616078012817D00E2005900020012575
:101A0000CDE90605009001900290CDE90305089507
:101A10006946A06801F020F8A06801F09BFC102145
:101A2000A06800F09FFF65700BB030BD380100204A
:101A3000014801F028B90000300700202DE9F047E7
:101A400086B004460078DDE90EA34FF0FF39444F1D
:101A5000A0F1010C4E466D464FF00008BCF17F0F1F
:101A600015D200F5C0604FF0400C00908DF804C016
:101A700000208DF80510090A8DF806108DF8072052
:101A800041462A18401CC0B211720428F9D301251E
:101A9000ABB11D4613E0606901A9401C60617B6821
:101AA0000098082298472F48052203A9006813F0E0
:101AB000EDF801282BD0A0694E46401CA0616D1E98
:101AC000EDB2E8D294ED060AF8EE400A94ED050A6C
:101AD000B8EE400A80EE801A9FED230A61EE000AFC
:101AE00030EE600A84ED010A13F086FBE169401ACA
:101AF00042F21071884206D9C4F81880C4F81480E4
:101B000013F07AFBE06106B03046BDE8F08720783C
:101B1000039900F5B060814209D19DF810004F286B
:101B20000BD04B2809D0472807D0432805D0A069FF
:101B30006FF00106401CA061C1E79DF814109DF8EC
:101B400017009DF8152041EA00609DF81610090461
:101B500041EA022108430026CAF80000B2E700006B
:101B600058010020100000200000C8422DE9F04F6D
:101B70008DB00446DDE916070DF124090DF10C0CBA
:101B80004D468DE821104FF0FF3A5646DFF8C480ED
:101B9000207800F065F8012507B13D464FF0000BB5
:101BA0006D1EEDB22BD3606909F10401401C606128
:101BB000D8F804300998082298472748052206A932
:101BC000006813F063F80146039E069803AB864253
:101BD00006AA4FF000000CD11E18171836793F796D
:101BE000BE4201D0584604E0401CC0B20828F3D3DE
:101BF0000120012901D0564628E028B3002694EDA3
:101C0000060AF8EE400A94ED050AB8EE400A80EEA6
:101C1000801A9FED120A61EE000A30EE600A84ED30
:101C2000010A13F0E9FAE169401A42F210718842A0
:101C300006D9C4F818B0C4F814B013F0DDFAE061A6
:101C40000DB03046BDE8F08F6FF00106A069401C72
:101C5000A061A5E758010020100000200000C84244
:101C6000F0B5461EDDE90645059F7F2E28D200F51A
:101C7000C06626600026012B23D0022B23D0032B25
:101C800023D0232323716171090AA171E271F2004B
:101C900027FA02F1A219761CF6B21172042EF6D3BD
:101CA00000F5B06028606020287160796871A079C3
:101CB000A871E079E871002028726872A872E87251
:101CC000F0BD2F23DEE72B23DCE72723DAE70346EB
:101CD00010B50020024603E09C5C6040521C92B2AA
:101CE0008A42F9D310BD0000F8B5394C002139A261
:101CF00060680369072098470C2500956068394E95
:101D000001230A218768F2780920B84700956068A6
:101D100001230A21876832792720B8470095606837
:101D200001230A218768B2784520B847009560688A
:101D300001230A21876872786320B84760681721F9
:101D400029A20369002098476068172128A2036927
:101D50004B209847D6ED020A9FED261A60680223B1
:101D600080EE810A172147691A461E20B84760682D
:101D7000242121A20369002098470095606801236F
:101D800024218768B2791E20B847606824211BA2ED
:101D90000369462098470095606832780123242122
:101DA00086686020B0476068322115A20369002070
:101DB0009847154800950123427C60683221856868
:101DC0002320A8476068806901B0BDE8F040004763
:101DD000580300204C4120204C4220205242202019
:101DE00052410000380500206375723A000000007F
:101DF0004100000000007A4473743A004F4C3A00EE
:101E000072636D3A0000000064050020014801F093
:101E10002FBB0000480B0020014801F029BB000047
:101E2000280A0020014801F023BB0000E80A002036
:101E3000014801F01DBB0000A8060020014801F088
:101E400017BB0000880A002001681823CAB2103AA4
:101E5000B2FBF3F2054B6FF30901032A9B5CC365E8
:101E600000D9091D81650846704700001C5601080D
:101E700010B5014600208B698A6A4FF0C07453B1D7
:101E8000B3F5005F15D072B1012A0CD0022A0AD036
:101E9000032A09D104E01AB1012A06D0022A03D18B
:101EA000C96AC90100D5012010BDC96AA142FAD092
:101EB00010BD002AF7D0012AF2D0022AF3D0032A5B
:101EC000F3D010BD30B50468256825F48025256061
:101ED000046863608368402B036803D099600068DE
:101EE000C26030BD9A600068C16030BD0148406882
:101EF00070470000001000E00748006840F0807064
:101F0000054908600020054948600846006840F01F
:101F10000100086070470000FCED00E0001000E0E8
:101F200070B504460021084604EB8102491CC2F842
:101F300088091029F8D300224FF40065A118521C1B
:101F400081F81C01AA42F9D3207060700121A170B0
:101F5000C4F8C80921764022A271607684F81C0971
:101F600084F81D1984F81F0984F81E09090204F178
:101F70001C00FEF7D1F9294604F58E70FEF7CCF966
:101F8000122104F62610FEF7C7F93E2104F6381098
:101F9000FEF7C2F9002070BD7047000030B5002187
:101FA0002DED028B85B0CD4C0091019102910391F2
:101FB00090ED010AC8498DED010A90ED020AB0EEDC
:101FC0000C8A8DED020A90ED030AD1ED030A30EE82
:101FD000200A8DED030A617C01290CD100780728C5
:101FE00009D0052807D09FEDBE0A8DED010A8DEDC1
:101FF000020A8DED030A9FEDBB0AB748694610300F
:1020000009F0D9FA0121A06912F0E2FAF0EE402AB3
:102010000021A06912F0DCFAB34DAF48F0EE400A9F
:1020200029781030F8EE0C1A052958D001297DD0F6
:1020300002297BD019B1032901D004294BD190ED9D
:10204000030A95ED011AB6EE002A20EE013A90ED52
:10205000011AB0EE410A03EE421A03EE020A21EE23
:10206000222A20EE200AB0EE481A84ED092A84EDD7
:102070000B0AF0EE610AB0EE420A11F003FE84EDA5
:10208000090A94ED0B0AB0EE481AF0EE610A11F05D
:10209000F9FD84ED0B0AD5ED030A94ED090A0FF062
:1020A00095FEB1EE400A84ED090AD5ED030A94EDE0
:1020B0000B0A0FF08BFE84ED0B0A287808B1032879
:1020C00009D1D4ED090AB1EE400AF1EE600AC4ED7F
:1020D000090A84ED0B0A05B0BDEC028B30BD95ED0D
:1020E000020A95ED011A30EE012A90ED010A90EDF9
:1020F000031AB0EE403A01EE420A01EE023AB0EEA7
:10210000481A20EE222A23EE200AF0EE610A84ED1E
:10211000092A84ED0B2A84ED0D2A84ED0F0A84ED43
:10212000110A84ED130AB0EE420A00E06CE011F0EF
:10213000A9FD84ED090A94ED0B0AB0EE481AF0EE01
:10214000610A11F09FFD84ED0B0A94ED0D0AB0EECB
:10215000481AF0EE610A11F095FD84ED0D0A94ED38
:102160000F0AB0EE481AF0EE610A11F08BFD84ED13
:102170000F0A94ED110AB0EE481AF0EE610A11F060
:1021800081FD84ED110A94ED130AB0EE481AF0EEC9
:10219000610A11F077FD84ED130AD5ED030A94ED81
:1021A000090A0FF013FE84ED090AD5ED030A94ED38
:1021B0000B0A0FF00BFE84ED0B0AD5ED030A94ED2C
:1021C0000D0A0FF003FE84ED0D0AD5ED030A94ED20
:1021D0000F0A0FF0FBFDB1EE400A84ED0F0AD5EDBA
:1021E000030A94ED110A0FF0F1FDB1EE400A84EDFF
:1021F000110AD5ED030A94ED130A0FF0E7FDB1EED5
:10220000400A84ED130A66E795ED020A95ED011A7E
:1022100030EE013A90ED010A90ED031AB0EE402A3B
:1022200001EE430A01EE032AB0EE481A20EE220A1C
:1022300062EE200A84ED090A84ED0B0AC4ED0D0A52
:10224000C4ED0F0AF0EE610A11F01CFD84ED090ADD
:1022500094ED0B0AB0EE481AF0EE610A11F012FD8F
:1022600084ED0B0A94ED0D0AB0EE481AF0EE610A07
:1022700011F008FD84ED0D0A94ED0F0AB0EE481A36
:10228000F0EE610A11F0FEFC84ED0F0AD5ED030AB1
:1022900094ED090A0FF09AFD84ED090AD5ED030AC1
:1022A00094ED0B0A0FF092FD84ED0B0AD5ED030AB5
:1022B00094ED0D0A0FF08AFDB1EE400A84ED0D0A8F
:1022C000D5ED030A94ED0F0A0FF080FDB1EE400A40
:1022D00084ED0F0AFFE6000010E7002064050020EF
:1022E000000000000AD7A33CD8ED002072B6FEE73C
:1022F000002229B101291AD002291BD04FF44072C3
:102300000E490B6823F440730B600B6813430B609A
:102310000A6822F0F8020A600A68022303EBC00090
:1023200002430A60086840F48030086070474FF448
:102330008072E5E74FF40072E2E70000103C0240D3
:102340001348016889050FD5016821F40071016007
:10235000016841F400610160016821F400610160DD
:10236000016841F400710160016849050FD50168F9
:1023700021F480610160016841F4805101600168CD
:1023800021F480510160016841F48061016070476F
:10239000003C024008490A6822F440720A600A6858
:1023A00042F004020A600A684FF4803343EA0020D6
:1023B00002430A6070470000103C0240064A13685E
:1023C00023F44073136013681360136843F0010330
:1023D0001360017070470000103C0240094910B5BD
:1023E0000C6824F440740C600C6844F440740C6075
:1023F0000C6844F001040C600260BFF36F8F43600F
:1024000010BD0000103C0240074A136823F44073DB
:102410001360136843F480731360136843F001037F
:102420001360018070470000103C0240074A1368A7
:1024300023F440731360136843F40073136013684C
:1024400043F001031360016070470000103C02403C
:1024500017490868C206174805D5C26942F010023C
:10246000C26110220A600A68920605D5C26942F06C
:102470000802C26120220A600A68520605D5C269B4
:1024800042F00402C26140220A600A68120605D5C1
:10249000C26942F00202C26180220A600A689207A1
:1024A00005D5C26942F02002C2610220086070476F
:1024B0000C3C0240F00B002070B51149044600208E
:1024C000C86101F0C1FB06460E4D09E0601C07D053
:1024D00024B101F0B9FB801BA04201D9032070BDDB
:1024E0002868C003F2D42868C00701D00120286002
:1024F000286810F0F200F2D0FFF7AAFF012070BDAB
:10250000F00B00200C3C024070B5D04000F0010000
:102510000C460870097B0026012505293AD2DFE820
:1025200001F00337091D330088B312F065FE6060C7
:1025300002200AE012F060FE6168401AA060217873
:1025400029B1B0F57A7F25D90420207322E0322802
:102550001FD312F051FE60600320F6E712F04CFE2C
:102560006168401AA06022784FF4C871012A04D033
:1025700088420FD32573012070BD8842FAD23228D9
:1025800008D92573022070BD2573032070BD01E0BA
:1025900000B926730020F9E70B4A1278022A09D005
:1025A000052A07D002235AB1032A02D1074A026042
:1025B0000B707047054A303A02600420087070477B
:1025C000024A103AF3E70000D8ED0020E0040020B2
:1025D00078B50024009490F83C20012A19D00122FB
:1025E00080F83C200A6807230568092A13D9EE6899
:1025F0000A3A02EB420293409E43EE600B788A68EF
:102600000A3B03EB43039A400368DD682A43DA6020
:1026100010E0022078BD2E6902EB420293409E43F7
:102620002E610B788A6803EB43039A4003681D69A7
:102630002A431A614A681F23072A13D205686E6B62
:10264000521E02EB820293409E436E630B790A880E
:102650005B1E92B203EB83039A4003685D6B2A43CF
:102660005A6327E005680D2A12D22E6BD21F02EBA7
:10267000820293409E432E630B790A88DB1F92B23D
:1026800003EB83039A4003681D6B2A431A6311E02E
:10269000EE6A0D3A02EB820293409E43EE620B79A2
:1026A0000A880D3B92B203EB83039A400368DD6A0C
:1026B0002A43DA62164B0568144A9D4206D10D681A
:1026C000122D03D1556845F48005556005689D427B
:1026D00018D10B68102B01D0112B13D1536843F480
:1026E00000035360096810290CD10A490A4A096895
:1026F000B1FBF2F101EB8101490000E0491E0091BC
:102700000029FBD180F83C40002078BD0023014027
:10271000002001403C00002040420F0070477047FD
:10272000704770B504004FF0000503D0206C002600
:1027300010B107E0012070BD204600F01DF866646E
:1027400084F83C60206CC00610D4206C20F48850C3
:1027500040F0020020642046FEF7A2FA6664206C76
:1027600020F0020040F00100206400E0012584F820
:102770003C60284670BD000070B586B00646142146
:102780006846FDF7C9FD1D493068884234D11C48B0
:102790000025016841F480710160006800F48070D8
:1027A000059017481438016841F004010160006881
:1027B000694600F0040005900C2000900320CDE94C
:1027C0000105104801F036F9104C0F48C4E9000526
:1027D0000015A560C4E90350400060618000A0615D
:1027E0004011C4E907052046656200F011FF08B1F9
:1027F000FFF77CFDB463A66306B070BD0020014006
:10280000443802400008024010640240A80600203C
:10281000F8B5044600200E46009094F83C100129BB
:1028200007D0012184F83C1021688B68DB0702D0B7
:1028300011E00220F8BD8B6843F001038B60404932
:10284000404B0968B1FBF3F101EB410100E0491E87
:1028500000910029FBD121688B68DB0503D58B68CB
:1028600023F480738B6021688B68DB075DD0236C59
:1028700040F20165AB4343F4807323644968490522
:1028800005D5216C21F4005141F480512164216C63
:10289000C90404D5616C21F00601616400E0606444
:1028A00084F83C00A16B2948274DC863A16B2848D8
:1028B0000864A16B2748C86421686FF02200086093
:1028C0002068416841F0806141602068816841F47E
:1028D000807181602168134632464C31A06B00F054
:1028E00001FF68681C49C006206806D0884224D1D0
:1028F000816811F0405F13D01FE08842F8D0174A7A
:10290000904203D1D1F80423D206F1D0144A904268
:1029100013D1D1F8041301F01F011029E8D30CE002
:10292000816841F08041816007E0206C40F0100038
:102930002064606C40F0010060640020F8BD00007D
:102940003C00002040420F0000230140110C000811
:10295000950C00087F0C0008002001400021014078
:102960000022014090F82020012A07D0022A05D039
:10297000416A41F480214162012070470068426948
:102980000A43426100207047F0B590F82050046877
:10299000A468012D05D0022D03D0416A41F48021A5
:1029A00057E014F0406F01D1E5004FD5C4F3016446
:1029B0000125A5401D608D684FF4C0739DB1CE68A0
:1029C00035434E6845EAC605066803EB0417F55122
:1029D0004FF4C275076805EB04150E697E51097D39
:1029E000012905D009E00E88CD6845EA4655EBE798
:1029F00001684E5946F480764E511179D579567951
:102A000041EA056195792D0445EA062529434FF4ED
:102A1000C676056806EB0416A9511178D57841EA07
:102A20000561957852782D0445EA022211434FF44E
:102A3000C475026805EB04155151006803EB0411DD
:102A4000425842F0010242500020F0BD416A41F478
:102A5000001141620120F0BD10B590F82020012A3C
:102A600007D0022A05D0416A41F480214162012049
:102A700010BD3B48D0F8002242F00102C0F800220D
:102A8000D0F8002222F47C52C0F80022D0F80022B4
:102A90004B6A42EA0322C0F800220A7D02F01F03BB
:102AA00001229A40D0F81C329343C0F81C32CB6903
:102AB000B3B9D0F80C329343C0F80C328C894B6810
:102AC00064F31F434C6900EBC404C4F840320C8922
:102AD0000B6864F31F434C6900EBC404C4F8443230
:102AE000CB69012B16D1D0F80C321343C0F80C324D
:102AF0000C884B6864F31F434C6900EBC404C4F8B2
:102B000040320C89CB6864F31F434C6900EBC4046A
:102B1000C4F844328B69002BD0F804320ED0134332
:102B2000C0F804320B69002BD0F8143208D01343DC
:102B3000C0F81432096A012904D008E09343EFE792
:102B40009343F5E7D0F81C121143C0F81C12D0F8DB
:102B5000001221F00101C0F80012002010BD000099
:102B600000640040704770B590F82040012C05D0FB
:102B7000022C03D0416A41F4802128E0046809B3A3
:102B80002469A40720D04FF4D874056804EB01141D
:102B90002D5915F00405956005682D591AD0ED08DA
:102BA000556005682C5904F00204D4604FF4DA74BF
:102BB000056804EB01142E5906F00F06082E0CD3FD
:102BC00008250DE0E468DCE7416A41F40011416248
:102BD000012070BD6D0D1560E3E72D5905F00F055F
:102BE000156105682D59C5F30725956105682C59B0
:102BF000240C54614FF4DC72046802EB0112A458F7
:102C00001C700468A458240A5C700468A458240C3E
:102C10009C700468A258120EDA704FF4DE720468D9
:102C200002EB0112A4581C710468A458240A5C71B8
:102C30000468A458240C9C710468A258120EDA711E
:102C4000006829B1016941F020010161002070BDD7
:102C5000C16841F02001C160F8E70246002092F807
:102C60002010012901D002290CD111688A68520173
:102C700000D501208A68120100D5401C8968C9006E
:102C800000D5401C70472DE9F05F05460068002420
:102C90004669D0F804908768D0F80CB0D0F810A03E
:102CA000D0F81880F10748D0F90714D001218160CD
:102CB000B80703D5284600F07AFB0CE0780702D568
:102CC0004FF4006407E0380702D54FF4805402E067
:102CD000284600F06BFBF80516D529684FF4807084
:102CE0008860B80503D5284600F063FB0CE0780542
:102CF00002D544F4005407E0380502D544F480447A
:102D000002E0284600F054FBF80316D529684FF47A
:102D100080308860B80303D5284600F04CFB0CE0F7
:102D2000780302D544F4004407E0380302D544F4A4
:102D3000803402E0284600F03DFB300707D55FEA0B
:102D4000CB6004D52968102044F40074C860700773
:102D50004FF0080707D55FEA0B7004D52868C760F5
:102D6000284600F099F9B00706D52868C0688007A2
:102D700002D0284600F092F9700607D55FEACA60D3
:102D800004D52968102044F480640861B00607D592
:102D90005FEA0A7004D528680761284600F006FA41
:102DA000F00606D528680069800702D0284600F0A2
:102DB000FFF9B00308D55FEAC96005D5296810207E
:102DC0004860284600F0C4FAF00307D55FEA0970AE
:102DD00004D528684760284600F0EEFA300446D54E
:102DE0005FEA497040D5F00504D55FEAC87001D0AC
:102DF00044F00104B00504D55FEA887001D544F0C1
:102E00000204700504D55FEA487001D544F004045B
:102E1000300529D518F0700F26D008F07000402832
:102E200015D006DC102809D020280AD0302816D169
:102E30000AE050280ED0602811D10EE044F00804BA
:102E40000DE044F010040AE044F0200407E044F0F0
:102E5000400404E044F0800401E044F480742868F5
:102E6000816921F070018161296804204860002C8B
:102E700005D0686A204368622846FFF773FEBDE804
:102E8000F09F70B5040003D094F8200010B104E066
:102E9000012070BD204600F081F82068016841F0F3
:102EA0000101016000F0D0FE0546052604E000F0B7
:102EB000CBFE401B0A2811D820684068C007F6D016
:102EC0002068016821F00201016000F0BDFE0546A6
:102ED0000BE000F0B9FE401B0A2806D9606A40F4F6
:102EE0000030606284F82060D2E720684068800784
:102EF000EFD4207E0128206801683DD021F08001B8
:102F00000160607E01282068016838D021F040010E
:102F10000160A07E01282068016833D021F02001E3
:102F20000160E07E0128206801682ED041F0100188
:102F30000160207F01282068016829D021F0080164
:102F40000160607F01282068016824D021F004011D
:102F50000160D4E902010843D4E904121143084393
:102F60006168491E08432168C86100206062012031
:102F700084F82000002070BD41F08001C0E741F0DE
:102F80004001C5E741F02001CAE721F01001CFE779
:102F900041F00801D4E741F00401D9E7F0B587B06A
:102FA000044614216846FDF7B7F9364B3648DFF87A
:102FB000D0E01968D4F800C0334A03250226092757
:102FC00010300024491CF44522D11960012907D191
:102FD000016841F000710160006800F00070059028
:102FE000106840F0080010601068CDE9005600F04D
:102FF0000800CDE9047069462448CDE9024500F097
:1030000019FD00220521142001F0D6F8142033E028
:10301000DFF87CE0F44531D1D0F800C04CF0806C92
:10302000C0F800C0D0F800C001290CF0806CCDF8C9
:1030300014C0196007D1016841F000710160006897
:1030400000F000700590106840F0020010601068F9
:1030500002AB00F0020005904FF44050CDE90006AD
:1030600083E8B00069460B4800F0E4FC002205212B
:10307000412001F0A1F8412001F090F807B0F0BD27
:10308000006400402C00002030380240000C024058
:1030900000680040000402407047000010B58EB088
:1030A000002400946B4603AA21460194FFF75BFDC0
:1030B0000294002823D10598002820D10398A0F578
:1030C000807181391DD0B0F5C17F18D10A90DDE93A
:1030D0000001CDE90B013048006800280FD0022321
:1030E00002AA0AA911F072FD0298002807D02B4904
:1030F0004FF080500860BFF34F8FBFF36F8F0EB05B
:1031000010BD274B0DF1280C0FCB8CE80F00BDF83C
:10311000000040BA00B200EE100AF8EEC00A9FEDBF
:10312000210A80EE801A8DED0B1ABDF80200B5EE73
:10313000C01A40BA00B200EE900AF8EEE01AC1EEF2
:10314000800ACDED0C0ABDF8040040BA00B201EED1
:10315000900A1548B8EEE12AC2EE001AF1EE10FA14
:10316000CDED0D1A12D1F5EEC00AF1EE10FA0DD127
:10317000F5EEC01AF1EE10FA08D10178491CC9B277
:1031800001700A2903D90A210170B8E7047002A965
:103190000AA80BF045F9A7E71C00002004ED00E0A9
:1031A0009861010800007A44C405002070470000BF
:1031B00010B58EB0002400946B4603AA012101943F
:1031C000FFF7D1FC0294002863D10598002860D154
:1031D0000398A0F281517E290ED80A90DDE9000102
:1031E000CDE90B0157480068002852D0022302AAFB
:1031F0000AA911F0EBFC41E0A0F201717E2904D88C
:1032000000F07F0008F072F938E09FED4F0AB0F54A
:10321000C87F6BD0A0F5807191393CD0B0F5C97FE3
:1032200037D19DF800009DF803109DF8012040EA79
:1032300001609DF802109DF80530090441EA022161
:1032400008439DF804109DF8072001EE100A41EA9A
:1032500002619DF80620B8EEC11A120442EA032268
:103260001143494200EE901A5FF00300F8EEE00AC5
:1032700060EE800A21EE000A0AF09AFE0298002809
:1032800007D032494FF080500860BFF34F8FBFF333
:103290006F8F0EB010BD9DF800009DF803109DF8D3
:1032A000012040EA01609DF802109DF805300904F4
:1032B00041EA022108439DF804109DF8072001EE21
:1032C000100A41EA02619DF80620B8EEC11A120404
:1032D00042EA03221143494200EE901A0220F8EE1E
:1032E000E00A60EE800A21EE000AC5E79DF80000C2
:1032F0009DF803109DF8012040EA01609DF802103E
:103300009DF80530090441EA022108439DF80410A4
:103310009DF8072001EE100A41EA02619DF806209F
:10332000B8EEC11A120442EA03221143494200EEE8
:10333000901A0120F8EEE00A60EE800A21EE000A01
:103340009AE7000010000020CDCCCC3D04ED00E059
:103350007047000070B5044690F82000012804D0A2
:10336000606A40F40020606218E0022084F82000C7
:103370002068016821F00101016000F065FC05464C
:103380000EE000BF00F060FC401B0A2808D9606A0C
:1033900040F400306062052084F82000012070BDF8
:1033A00020684068C007EDD1606270BD704770470B
:1033B000704770477047704770472DE9F0410446E9
:1033C000876D00F041FC064694F835000025022880
:1033D00006D08020606584F834500120BDE8F0817B
:1033E0002068016821F0160101602068416921F020
:1033F00080014161206C08B9A06C20B1206801688F
:1034000021F0080101602068016821F001010160DC
:103410000CE000F019FC801B052807D9202060650E
:10342000032084F8350084F83450D7E7206800681A
:10343000C007EED194F85C103F208840B8600120AE
:1034400084F8350084F834500020C7E790F8351030
:10345000022903D08021416501207047052180F8B1
:1034600035100068016821F00101016000207047FB
:103470002DE9F84304464FF00009CDF80090634869
:103480004FF41651A56D0068B0FBF1F72E6894F863
:103490005C10082000FA01F131420FD021680A685F
:1034A00052070BD50A6822F004020A6094F85C10F7
:1034B0008840A860606D40F00100606594F85C1081
:1034C0004FF0010808FA01F0304208D0216849693C
:1034D000090604D5A860606D40F00200606594F8AC
:1034E0005C1004208840304208D0216809688907B0
:1034F00004D5A860606D40F00400606594F85C102D
:1035000010208840304218D021680968090714D576
:10351000A86020680168490304D50068000308D545
:10352000A16C07E00168C90503D4016821F0080116
:103530000160216C09B12046884794F85C10202076
:103540008840304231D021680968C9062DD5A8606D
:1035500094F8350005282068016806D0490347D54E
:10356000006800031DD4616C1CE021F016010160AD
:103570002068416921F080014161206C08B9A06C8C
:1035800020B12068016821F00801016094F85C1006
:103590003F208840A86084F8358084F83490216DFD
:1035A0001FE0E16B09B120468847606D00282BD0F1
:1035B000606DC00714D0052084F8350020680168CC
:1035C00021F0010101600098401C0090B84203D82E
:1035D00020680068C007F6D184F8358084F83490FC
:1035E000E16C002910D001B02046BDE8F043084747
:1035F0000168C905D5D4016821F01001016084F883
:10360000358084F83490CCE7BDE8F8833C00002096
:103610002DE9F041044600F017FB06465CB102209C
:1036200084F83500002584F834502068016821F0C2
:10363000010101600DE00120BDE8F08100F004FB14
:10364000801B052805D920206065032084F83500FB
:10365000F2E720680068C007F0D1226811682048AE
:103660000140D4E901031843D4E903363343184336
:1036700063691843A3691843E3691843236A18432D
:103680000843616A042903D1D4E90B1319430843A1
:10369000106020684069666A20F0070130460E43DA
:1036A000012704280CD1A06A0643E06A40B12046F5
:1036B000FEF7DEFB20B14020606584F83570BAE784
:1036C000206846612046FEF7BFFB94F85C203F214E
:1036D00091408160656584F835700020ACE700009A
:1036E0003F8010F02DE9F0410446866D90F83400DB
:1036F000002501280DD0012084F8340094F835709D
:103700000020012F07D084F8340002252846BDE8A8
:10371000F0810220FBE7022784F8357060652046BF
:10372000FEF7D0FB94F85C103F208840B060206822
:10373000016841F016010160206C20B12068016829
:1037400041F0080101602068016841F00101016059
:10375000DCE7000070B5044600F076FA0546601C10
:1037600002D004480078044400F06EFA401BA042E6
:10377000FAD370BD300000202DE9F04704462248FE
:103780000F46017E01290AD00121804601764CF2C4
:1037900050394846FEF790FE020003D02FE0022089
:1037A000BDE8F0874FF0FF3038602068174D0128E2
:1037B00001D0A6681CE0207C6168FEF7EBFD48465E
:1037C000FEF77AFE0246286820F00400286014E024
:1037D000217C3046FEF78CFD4846FEF76DFE020068
:1037E000286820F0FA00286001D03E6005E0761CD1
:1037F000D4E902100844B042EAD8FEF7A1FD002146
:1038000088F818101046CBE7F00B0020103C02405F
:103810000348016841F0004101600020704700004A
:10382000103C02402DE9F0471B4E05461446307E01
:103830001F468946012808D0012030764CF25038C6
:103840004046FEF739FE18B114E00220BDE8F087CB
:103850009DB1012D16D0022D19D022463B46484677
:10386000FEF7BCFD4046FEF727FE0C490A6822F031
:1038700001020A6000213176E8E7E1B24846FEF72E
:103880009DFDEFE7A1B24846FEF7BEFDEAE72146FF
:103890004846FEF7CBFDE5E7F00B0020103C024068
:1038A000074900200A68002A09DA054A054B0C3A44
:1038B0001360054B13600968002900DA0120704786
:1038C000103C024023016745AB89EFCD2DE9F04F55
:1038D0000022DFF838B101264FF00F0906FA02F492
:1038E00001EA0403A3427DD122F003075F44D7F825
:1038F000088895074FEA157C09FA0CFA0AEA0805C8
:10390000DFF80C81404502D14FF0000832E0DFF8CB
:103910000481404502D14FF001082BE0DFF8F88028
:10392000404502D14FF0020824E0DFF8F080404526
:1039300002D14FF003081DE0DFF8E480404502D1DA
:103940004FF0040816E0DFF8DC80404502D14FF06C
:1039500005080FE0DFF8D080404502D14FF006089F
:1039600008E0DFF8C880404502D14FF0070801E0C9
:103970004FF0080808FA0CF8A84522D12C4DD5F8CC
:1039800000C02CEA030CC5F800C005F1040CDCF8FB
:1039900000509D43CCF80050254D0C35D5F800C0A3
:1039A0002CEA030CC5F800C02D1FD5F800C02CEA86
:1039B000030CC5F800C0D7F8085825EA0A05C7F86F
:1039C0000858056857000323BB409D430560D50890
:1039D00000EB8505D5F820C057074FEAD76809FAEC
:1039E00008F700E00CE02CEA070CC5F820C0C56819
:1039F0009D43C5604568A543456084689C438460D9
:103A0000521C102AFFF46AAFBDE8F08F003001406D
:103A1000000002400004024000080240000C024086
:103A2000001002400014024000180240001C024036
:103A3000003C01402DE9F84FDFF8BCA10022012530
:103A400003264FF00F090AF1040BAAF1040E00BF80
:103A50000B6805FA02F42340A34270D10F7907F0F6
:103A60000307012F01D0022F16D187684FEA4208C1
:103A700006FA08FC27EA0C07D1F80CC00CFA08FC7F
:103A80004CEA070CC0F808C04768A7430C79C4F398
:103A9000001494403C4344600C79E443A4070AD0EA
:103AA000C4684FEA420C06FA0CF7BC438F6807FA69
:103AB0000CF72743C7600C7904F00304022C12D1E1
:103AC000D40800EB840CDCF820405707FF0E09FAFD
:103AD00007F824EA0804D1F8108008FA07F848EA41
:103AE0000408CCF8208004684FEA420C06FA0CF770
:103AF000BC430F7907F0030707FA0CF72743076069
:103B00004C6814F4403F70D03C4C276847F4804721
:103B10002760246822F0030704F480440094384CA2
:103B200007EB040CDCF8084897074FEA177809FA06
:103B300008F7BC43334FB84202D1002724E054E0D9
:103B4000314FB84201D101271EE0304FB84201D1B8
:103B5000022719E02E4FB84201D1032714E02D4F60
:103B6000B84201D104270FE02B4FB84201D10527FD
:103B70000AE02A4FB84201D1062705E0284FB84293
:103B800001D1072700E0082707FA08F72743CCF8F8
:103B90000878DAF800405746D1F804C09C435FEA41
:103BA000CC2C00D51C433C60DBF800405F46D1F8CC
:103BB00004C09C435FEA8C2C00D51C433C60DEF8BB
:103BC00000407746D1F804C09C435FEA8C3C00D5A6
:103BD0001C433C60084F083F3C68D1F804C09C433C
:103BE0005FEACC3C00D51C433C60521C102AFFF419
:103BF0002FAFBDE8F88F0000083C01404438024078
:103C00000030014000000240000402400008024071
:103C1000000C024000100240001402400018024054
:103C2000001C02400069084000D001207047426932
:103C300021EA02030A4043EA0241816170470AB166
:103C4000816170470904FBE7014880687047000004
:103C500030000020D0F8DC0309F0EAB8D0F8DC032B
:103C600009F0FBB8006809F0BBBD006809F0BCBDF5
:103C7000C1EB011100EB8100002200F81A2F427005
:103C8000C272827210467047C1EB011100EB8100D5
:103C900090F84C007047C1EB011100EB8100806B84
:103CA00070472DE9FF4F83B00546DDE9117690F8A6
:103CB000D403DDF8408093468A4601281CD0CAEB25
:103CC0000A11012305EB810485F8D4334FF0000974
:103CD00084F819900698207584F815A084F8267049
:103CE0000BF07F00A07551462846FFF7C1FF5FEA41
:103CF0000B6005D5E37505E0022007B0BDE8F08F45
:103D000084F81790286809F06FFD012F06D1B8F1EB
:103D1000010F03D110B9BC2E00D9BC2684F818803D
:103D2000B0B22085CDF80080CDE9017028685A46F0
:103D30005146069B09F0CEFD85F8D493DDE7D0F817
:103D4000DC0309F001B92DE9F0030E46DDE906C9EF
:103D5000DDE90874C1EB061100EB81010225CA758B
:103D600081F82630BCF1000F0AD081F82A500024D7
:103D700063B1012B31D0022B28D0032B16D125E0C3
:103D80004FF0030881F82A804C76F0E7BCF1010F70
:103D90000CD11AB18A7E012A19D007E0D7B90122C5
:103DA00081F83D2000E0C2B181F82A50C1F82C9082
:103DB0004F6381F84C408C634E7581F84D40827999
:103DC0000068BDE8F003143109F014BE12B191F897
:103DD0003C20E8E791F83D20E5E781F82A40E5E757
:103DE0002DE9F04106680446304609F004FD01283B
:103DF00077D1206809F0BAFF002872D0206809F056
:103E0000B5FF800203D521684FF400104861206897
:103E100009F0ACFFC00203D521684FF4801048615F
:103E2000206809F0A3FF400103D521684FF08060AE
:103E30004861206809F09AFF800702D521680220B6
:103E40004861206809F092FF800018D521684FF082
:103E500000504861D6F84004C00710D11021304608
:103E600009F080FC304609F061FC607A022803D139
:103E70000121206809F056FF2046FFF7EFFE206879
:103E800009F074FFC00102D5204602F048F920680D
:103E900009F06CFF000705D5204600F0C8F821683E
:103EA00008204861206809F061FF800124D520685E
:103EB00009F09CFD074600254FF0010815E000BF02
:103EC00005F00F0108FA01F038420DD006EB45105D
:103ED000D0F80005E9B20004204603D501F0F0FD5A
:103EE00002E01CE001F0AAFF6D1C6079A842E7D84F
:103EF00021684FF000704861206809F037FFC04327
:103F0000C0060CD42068816921F01001816120462F
:103F100002F04FF92068816941F010018161BDE82C
:103F2000F081F8B5040005D094F8D5032568002683
:103F300010B106E00120F8BD84F8D463204600F0FB
:103F400029F8032084F8D503B5F1A04F00D1A6715C
:103F5000206809F0B7FB207C8DF8000094E80F0082
:103F600009F050FB022560B90121206809F03AFFF1
:103F700038B9207C8DF8000094E80F0009F06AFE43
:103F800010B184F8D553D5E7012084F8D50300207B
:103F9000F8BD000010B586B0044614216846FCF751
:103FA000BBF92068B0F1A04F2FD119480021026859
:103FB00042F001020260006800F0010005904FF439
:103FC000C05000900220CDE90101032003900A2097
:103FD000049069460F48FFF72DFD0D48001D01684C
:103FE00041F0800101600A481430016841F48041C9
:103FF00001600068002200F4804005900521432004
:1040000000F0DAF8432000F0C9F806B010BD000057
:104010003038024000000240D0F8DC0308F0B1BFA5
:10402000D0F8DC0308F0B1BF006809F0C2BED0F8D8
:10403000DC0308F052BF10B5044690F8D403012801
:104040000DD0012084F8D4030121206809F052FB2F
:10405000206809F065FB002084F8D40310BD02201D
:1040600010BD10B5044690F8D403012809D00120F2
:1040700084F8D403206809F0E3FE002084F8D40318
:1040800010BD022010BD0000024881680278114472
:1040900081607047300000200B4810B5016841F482
:1040A00000710160016841F480610160016841F4C0
:1040B00080710160032000F09FF8002000F006F8F6
:1040C00000F050F8002010BD003C024030B505461D
:1040D0001F4887B00024016841F02001016000689A
:1040E00006A900F02000009001A800F031F9049822
:1040F000A8B100F04DF940001649174AB0FBF1F1A4
:104100001648491E026040F2E732C0E90324C0E9C4
:104110000114846100F08CFB040003D015E000F072
:1041200037F9E9E70D4800F0B3FC04000DD1372062
:1041300000F034F8102D07D200222946372000F075
:104140003BF80748056000E0012407B0204630BD79
:104150004038024040420F0000140040A80B0020ED
:10416000340000200C4882B0016841F480410160B5
:10417000006800F4804000900748001F016841F08B
:10418000805101600068002200F0805000900F21F3
:10419000901E02B000F010B844380240002809DB3D
:1041A00000F01F02012191404009800000F1E02051
:1041B000C0F8001170470000F0B40E4B1B680C46AD
:1041C000C3F30223C3F10705042D00D90425191DEB
:1041D000072901D2002300E0DB1E012606FA05F1C3
:1041E000491E214099409E40761E16403143F0BC46
:1041F0000AF02BBB0CED00E0064900F0070208684E
:104200004FF6FF03184040EA0220034A10430860BB
:10421000704700000CED00E00000FA052DE9F047C2
:104220000E46050065D0DFF81481D8F80000F7B21B
:1042300000F00700B04207D288F80070D8F80000FC
:1042400000F00700B04254D128683D4C810712D5D8
:10425000400703D5206840F4E0502060287800072C
:1042600003D5206840F4604020602068A96820F0F1
:10427000F000084320602878C0072DD030496868D6
:104280000839012812D0022813D0032811D0096858
:10429000890700292DDA216821F0030101432160FB
:1042A000FFF7D2FC814641F2883A0EE009688903A3
:1042B000EFE709688901ECE7FFF7C6FCA0EB09010D
:1042C000514502D90320BDE8F0872068696800F0F5
:1042D0000C00B0EB810FEFD1D8F80010404601F090
:1042E0000701B14207D90770006800F00700B0422B
:1042F00001D00120E7E72878400705D52068E96864
:1043000020F4E050084320602878000706D5206894
:10431000296920F4604040EAC100206000F058F8AC
:104320002168084AC1F30311515CC840064908607E
:1043300006480068FFF7CAFE0020C4E7003C0240C0
:1043400008380240245601083C00002034000020B8
:104350000F2202600C4A136803F0030343601368E2
:1043600003F0F0038360136803F4E053C360126842
:104370004FF4E05303EAD20202610448006800F0FF
:10438000070008607047000008380240003C024007
:104390000448054900680968044AC1F38221515C58
:1043A000C84070473C0000200838024034560108DD
:1043B0000448054900680968044AC1F34231515C68
:1043C000C84070473C0000200838024034560108BD
:1043D000154810B5006810F00C02144813D04110B5
:1043E000042A0FD0082A0ED10F4C241F22682368FC
:1043F00002F03F025B0207D52068C0F38810A0FBE3
:10440000010106E0084610BD2168C1F38811A1FB37
:1044100000010023FBF736FF2168C1F30141491C6D
:104420004900B0FBF1F010BD083802400024F40050
:104430002DE9F84F04006ED02078DFF84C93C007C8
:10444000A9F104054AD009F104000168C1F3810112
:10445000012908D00068C0F3810002280AD1D9F8E8
:104460000000400206D52868800337D56068002820
:10447000E1D033E06068B0F5803F10D0B0F5A02FF8
:10448000286810D020F480302860286820F480202C
:1044900028606068A8B1FFF7D7FB06460DE02868E2
:1044A00040F48030F4E740F480202860F7E700BF54
:1044B000FFF7CAFB801B642873D828688003F7D5F0
:1044C0000CE0FFF7C1FB064605E000BFFFF7BCFBB1
:1044D000801B6428F0D828688003F7D42078DFF8A0
:1044E000AC8280074FF0000A3ED5A748001D016846
:1044F00011F00C0F08D00068C0F3810002280BD126
:10450000D9F80000400207D42868800716D5E06873
:10451000012800D112E033E1E068B8B10120C8F809
:104520000000FFF791FB064605E000BFFFF78CFB9C
:10453000801B0228C0D828688007F7D52868216921
:1045400020F0F80040EAC10028600DE0C8F800A0A3
:10455000FFF77AFB064604E0FFF776FB801B022894
:104560001FD828688007F7D42078000722D5864F07
:1045700087486169703771B101210160FFF764FB01
:10458000064604E0FFF760FB801B022809D8386864
:104590008007F7D50EE0C0F800A0FFF755FB0646F0
:1045A00005E082E0FFF750FB801B02287DD83868C9
:1045B0008007F7D42078400768D5DFF8CCB1002712
:1045C0000BF13C0BDBF80000C0000BD4DBF8001053
:1045D00041F08051CBF80010DBF80000012700F01B
:1045E000805000906B4E3068C00510D4306840F4A5
:1045F00080703060FFF728FB009005E0FFF724FB98
:104600000099401A022850D83068C005F6D55E4E91
:10461000A0686C3601280FD00528306810D020F033
:1046200001003060306820F004003060A068B8B14C
:10463000FFF70AFB00900FE0306840F00100F4E75C
:1046400040F004003060F7E7FFF7FEFA0099411AE6
:1046500041F28830814266D830688007F4D50EE098
:10466000FFF7F2FA009007E0FFF7EEFA0099411A1F
:1046700041F28830814256D830688007F4D42FB197
:10468000DBF8001021F08051CBF80010A069C8B30E
:104690003D49091D0968C1F3810102294AD0022858
:1046A000504607D0C8F8600000E03CE0FFF7CCFAC5
:1046B00004463BE04746C8F86000FFF7C5FA0646E7
:1046C00005E000BFFFF7C0FA801B02282BD828683E
:1046D0008001F7D4D4E907010843A16A2E4A4908AA
:1046E00002EB0141626A41EA8211084394F82C10FE
:1046F00040EA0161C9F8001001203866FFF7A4FA0A
:10470000044606E03EE000BFFFF79EFA001B0228C9
:1047100009D828688001F7D534E000BFFFF794FA84
:10472000001B022802D90320BDE8F88F2868800109
:10473000F4D427E00128F7D0D9F80000E26900F4AA
:10474000800191421CD1226A00F03F01914217D1B1
:1047500047F6C071626A0140B1EB821F10D1A26AB4
:104760004FF0FF3300F4403103EB5202B1EB024F44
:1047700006D194F82C1000F07060B0EB016F01D0FE
:104780000120D1E70020CFE7043802400000474273
:10479000800E4742007000400000FFFF70477047E6
:1047A00070B590F83C20012A32D0012480F83C40BA
:1047B000022280F83D2003685A689D6822F0700646
:1047C0000A6832435A60134B02689A4214D0B2F11D
:1047D000804F11D0104B9A420ED0104B9A420BD002
:1047E0000F4B9A4208D00F4B9A4205D00E4B9A427B
:1047F00002D00E4B9A4204D1496825F08003194338
:10480000916080F83D40002180F83C10084670BD62
:10481000022070BD0000014000040040000800407C
:10482000000C00400004014000400140001800401E
:1048300010B5040003D094F83D0010B107E001204A
:1048400010BD002084F83C00204600F01FF8022034
:1048500084F83D00211D206807F012F8012084F83B
:10486000460084F83E0084F83F0084F8400084F855
:10487000410084F8420084F8430084F8440084F83E
:10488000450084F83D00002010BD0000F0B587B061
:10489000044614216846FBF73FFD564A236800246E
:1048A0005449103A032602255348B3F1804F37D0BC
:1048B000524FBB4254D10B6843F002030B600968AE
:1048C00001F002010591116841F0010111601168C8
:1048D00001F001010591116841F0020111601168B8
:1048E00001F002010591C0210091CDE90154694612
:1048F000CDE90345FFF79EF80096CDE901546946DE
:104900003F48CDE90345FFF795F8002205211D201A
:10491000FFF752FC5FF01D00FFF740FC07B0F0BD51
:104920000B6843F001030B60096801F00101059178
:10493000116841F0010111601168009601F0010158
:104940000591CDE901540121CDE903416946FFF705
:1049500071F8002205211C20FFF72EFC1C20DBE74C
:104960002848834221D1086840F0040008600868A4
:1049700000F004000590106840F008001060106816
:10498000694600F0080005904FF470400090CDE9B2
:1049900001541D48CDE90345FFF74CF800220521DD
:1049A0001E20FFF709FC1E20B6E71848834207D1F6
:1049B000086840F010000860086800F010000BE084
:1049C0000C481349001D8B4208D1016841F4803125
:1049D0000160006800F4803005909FE70D498B422C
:1049E0009CD1016841F480210160006800F48020BE
:1049F000F2E700004038024000000240000400409E
:104A00000004024000080040000C0240001000407A
:104A1000004001400048014090F83D10012901D0BC
:104A200001207047022180F83D100068114988423A
:104A300014D0B0F1804F11D00F4988420ED00F49E9
:104A400088420BD00E49884208D00E49884205D0D2
:104A50000D49884202D00D49884204D1816801F095
:104A60000701062903D0016841F00101016000201F
:104A700070470000000001400004004000080040B2
:104A8000000C0040000401400040014000180040BC
:104A900090F83D10012901D001207047022180F8D3
:104AA0003D100168CA6842F00102CA6000681149FD
:104AB000884214D0B0F1804F11D00F4988420ED0F7
:104AC0000E4988420BD00E49884208D00D498842D1
:104AD00005D00D49884202D00C49884204D1816832
:104AE00001F00701062903D0016841F001010160CE
:104AF0000020704700000140000400400008004012
:104B0000000C00400004014000400140001800403B
:104B100070B5044690F83C000025012817D0012606
:104B200084F83C60022084F83D002068826822F00E
:104B3000770222F47F4282600868502838D00DDC6A
:104B400020284FD005DC90B3102811D14AE0022074
:104B500070BD302846D040280AD13BE060282FD0D5
:104B600070280DD0B0F5805F03D0B0F5005F12D093
:104B7000012584F83D60002084F83C00284670BD83
:104B8000CB68D1E90121206806F0F3FE2068816836
:104B900041F0770109E0CB68D1E90121206806F0F6
:104BA000E8FE2068816841F480418160E1E719E016
:104BB000CA684968206806F0B1FF5021206806E005
:104BC000CA684968206806F0FBFF6021206806F08B
:104BD000DAFECEE7CA684968206806F09FFF4021E8
:104BE0002068F4E7226801461046F0E738B504462D
:104BF0000020009010F0F2FA022814D10A48694609
:104C00008442204602D103F0F3F901E004F02AF9CE
:104C10000098002807D005494FF080500860BFF386
:104C20004F8FBFF36F8F38BDE807002004ED00E021
:104C30002DE9F041054690F83C0000260C4601287D
:104C400010D0012085F83C0072B1042A1CD0082A3B
:104C50002CD00C2A50D00126002085F83C0030468C
:104C6000BDE8F0810220FBE7D4E90012E368286880
:104C700006F066FF2868816921F00C0181612868CF
:104C80008169A26811430FE0D4E90012E368286843
:104C900006F0A8FF2868816921F4406181612868D5
:104CA0008169A26841EA02218161D5E72868D4E9D7
:104CB000002C277B036A016A21F480710162C169BB
:104CC00023F4206321F0030141EA0C0121F0F00CF0
:104CD00039074FF420674CEA116107EA02221A43B0
:104CE000C16102622868C16921F00C01C1612868B4
:104CF000C169A26811432BE02868D4E90021E76864
:104D0000036AD0F820C02CF4805CC0F820C0D0F832
:104D10001CC023F420432CF4407C4CEA012121F4F4
:104D2000704C4FF6FF7101EA07314FF4204741EA1A
:104D30000C0107EA02321A43C16102622868C169A4
:104D400021F44061C1612868C169A26841EA022179
:104D5000C16181E710B5040003D094F83D0010B1A3
:104D600007E0012010BD002084F83C00204600F040
:104D70001EF8022084F83D00211D206806F080FD09
:104D8000012084F8460084F83E0084F83F0084F84F
:104D9000400084F8410084F8420084F8430084F81D
:104DA000440084F8450084F83D00002010BD7047A1
:104DB00030B50446002551B104290DD0082910D082
:104DC00094F8410094F84520012811D10EE094F8A0
:104DD0003E0094F84220F7E794F83F0094F843200F
:104DE000F2E794F8400094F84420EDE7012A01D05E
:104DF000012030BD022059B1042912D0082919D050
:104E000084F8410084F845000C2944D0012540E095
:104E100084F83E0084F842002068C26842F0020232
:104E200010E084F83F0084F843002068C26842F034
:104E3000040207E084F8400084F844002068C26857
:104E400042F00802C2600122206806F085FD144984
:104E50002068884214D0B0F1804F11D011498842A7
:104E60000ED0114988420BD01049884208D0104911
:104E7000884205D00F49884202D00F49884204D1A8
:104E8000816801F00701062903D0016841F00101A2
:104E90000160284630BD2068C26842F01002D1E7A8
:104EA000000001400004004000080040000C0040E9
:104EB00000040140004001400018004070B50D00A2
:104EC00004464FF0000607D0042D0AD0082D0DD05F
:104ED0000C2D10D001262FE02068C16821F00201BE
:104EE0000DE02068C16821F0040108E02068C16875
:104EF00021F0080103E02068C16821F01001C160C1
:104F000000222946206806F027FD2068016A41F248
:104F10001112114207D1016A9210114203D10168A6
:104F200021F001010160012045B1042D09D0082DB7
:104F30000AD004F8410F2071304670BD04F83E0FCE
:104F4000F9E704F83F0FF6E704F8400FF3E72DE91F
:104F5000F04104460068C66805694FF00007A907DC
:104F600013D5B10711D5F91E016101202077206802
:104F700080698007204602D0FFF738FE04E000F089
:104F8000C1F8204600F053F92777680716D5700757
:104F900014D521686FF00400086102202077206892
:104FA000806910F4407F204602D0FFF71FFE04E026
:104FB00000F0A8F8204600F03AF92777280715D521
:104FC000300713D521686FF00800086104202077AE
:104FD0002068C0698007204602D0FFF707FE04E082
:104FE00000F090F8204600F022F92777E80616D561
:104FF000F00614D521686FF01000086108202077B2
:105000002068C06910F4407F204602D0FFF7EEFD13
:1050100004E000F077F8204600F009F92777E80768
:1050200008D0F00706D021686FF001000861204623
:1050300000F062F9280608D5300606D521686FF021
:10504000800008612046FFF7A9FB680608D57006B6
:1050500006D521686FF040000861204600F06BF92A
:10506000A8060AD5B00608D521686FF020000861AF
:105070002046BDE8F041FFF792BBBDE8F08100009B
:1050800030B587B0044614216846FBF745F924681B
:10509000174D0021174802220323AC4210D10468A7
:1050A00044F010040460006800F0100005906020D7
:1050B0000090CDE90121CDE9031369460E4812E0C5
:1050C0000E4DAC4211D1046844F002040460006843
:1050D00000F00200059068150090CDE90121CDE9AE
:1050E000031369460648FEF7A5FC07B030BD000073
:1050F00000400140303802400010024000480140AA
:1051000000040240704770B5044690F83C00002649
:105110000D4601280FD0012084F83C006AB1042A12
:105120001DD0082A2FD00C2A3FD00126002084F859
:105130003C00304670BD022070BD206806F02CFC9B
:105140002068816941F0080181612068816921F04E
:1051500004018161206881692A69114311E0206896
:1051600006F04AFC2068816941F400618161206891
:10517000816921F480618161206881692A6941EA3D
:1051800002218161D2E7206806F06CFC2068C169C9
:1051900041F00801C1612068C16921F00401C161C9
:1051A0002068C1692A69114311E0206806F08EFC6D
:1051B0002068C16941F40061C1612068C16921F4BE
:1051C0008061C1612068C1692A6941EA0221C16127
:1051D000ACE710B5040003D094F83D0010B107E02F
:1051E000012010BD002084F83C00204600F01EF88D
:1051F000022084F83D00211D206806F041FB0120BB
:1052000084F8460084F83E0084F83F0084F84000AB
:1052100084F8410084F8420084F8430084F8440094
:1052200084F8450084F83D00002010BD70477047A9
:1052300010B50446022249B104290ED0082913D022
:1052400094F84100012816D0012010BD94F83E00CA
:105250000128F9D184F83E200FE094F83F0001289E
:10526000F2D184F83F2008E094F840000128EBD107
:1052700084F8402001E084F841200122206806F0F3
:105280006BFB16492068164A884201D0904203D130
:10529000436C43F4004343642068884213D0B0F168
:1052A000804F10D00F4988420DD00F4988420AD054
:1052B0000E49884207D0904205D00D49884202D05D
:1052C0000C49884204D1816801F00701062903D006
:1052D000016841F001010160002010BD00000140A3
:1052E000000401400004004000080040000C0040A1
:1052F000004001400018004000680349884201D185
:10530000FEF7C2BE704700000014004002460020B5
:1053100041B1042909D008290AD00C2901D110680B
:10532000006C70471068406B70471068806B704766
:105330001068C06B7047704770477047F8B50168D8
:1053400004460868CA684B6910F00F0F4FF000055B
:1053500059D003F0010602F49077374365D0C107B6
:1053600005D0D10503D5616C41F0010161644107AD
:1053700005D5D90703D0616C41F002016164810752
:1053800005D5D90703D0616C41F0040161640107C0
:1053900007D502F02001314303D0616C41F00801D0
:1053A0006164616C00293AD0800604D5900602D56C
:1053B000204606F0C1FC20684069616CC0F3801093
:1053C000090700D460B3204606F081FC20684069DC
:1053D000400621D52068143050E8001F21F040011C
:1053E00040E80012002AF5D1E06BA8B16E490165D2
:1053F000E06BFEF72BF8002811D0E06B016D01B0D7
:10540000BDE8F040084783060FD593060DD520462A
:10541000BDE8F84006F090BC2046FFF78EFFF8BDCF
:105420002046FFF78AFF6564F8BD266B2023012E16
:105430007DD1C6067BD5D60679D508684868009028
:1054400048694FF00206400641D5E16B08684068A4
:105450000004000CE8D0A28D8242E5D9E085C8693D
:10546000B0F5807F2DD020680C3050E8001F21F46B
:10547000807140E80012002AF5D12068143050E80D
:10548000001F21F0010140E80012002AF5D1206838
:10549000143050E8001F21F0400140E80012002ABB
:1054A000F5D184F84230256320680C3050E8001FA5
:1054B00021F0100140E80012002AF5D1E06BFDF761
:1054C0007CFF6663A08DE18D401A81B22AE0A08D39
:1054D000E18D401A81B2E08D0028A5D00029A3D02B
:1054E00022680C3252E8000F20F4907042E8000766
:1054F000002FF5D12068143050E8002F22F001026F
:1055000040E80027002FF5D184F842302563206859
:105510000C3050E8002F22F0100240E80023002B4E
:10552000F5D166632046FFF707FFF8BDFFE70506E4
:105530002BD5150629D594F841002128F5D1A0686E
:10554000B0F5805F01D12069B0B1206A411C2162B1
:10555000216800784860E08C401E0004000CE08464
:10556000E3D12068C16821F08001C1602068C16872
:1055700041F04001C160D8E7206A0088C0F308000C
:105580004860206A801C2062E5E74006CDD55006C1
:10559000CBD5CA68204622F04002CA6084F8413068
:1055A00000F08CFAC1E7000029BC000870B50400C7
:1055B00004D094F84100002510B106E0012070BD30
:1055C00084F84050204600F023F8242084F841005D
:1055D0002068C16821F40051C160204606F00EFC2D
:1055E0002068016921F4904101612068416921F03E
:1055F0002A0141612068C16841F40051C1606564BD
:10560000202084F8410084F842006563002070BDCA
:105610002DE9F04F87B0054614216846FAF77CFE65
:105620009448DFF84C8210380221D5F800C00024DD
:10563000904B03228E0607154FF4406B4FF0400A43
:10564000C4453ED1D3F800C04CF4002CC3F800C0D0
:105650001B6803F400230593036843F0040303600D
:105660000068CDF800B000F004000590CDE9011409
:105670000820CDE9032069467F48FEF7DBF9DFF813
:1056800000827E494046C0E90347C8F81440C8F884
:105690001840C8F81C40C8F8204088E84204C8F800
:1056A0002440FDF7B5FF08B1FCF720FEC5F83880AF
:1056B000002205213420C8F83850FEF77DFD342043
:1056C00048E0DFF8C081DFF8C0E14FF00709C445CA
:1056D00045D1684B1B1DD3F800C04CF0100CC3F82B
:1056E00000C01B6803F010030593036843F0010337
:1056F0000360006800F0010005904FF4C0608DE881
:105700001300CDE9032969467046FEF793F9DFF8E7
:1057100070815E4908F160084046C0E90347C8F857
:105720001440C8F81840C8F81C40C8F8204088E861
:105730004204C8F82440FDF76BFF08B1FCF7D6FD22
:10574000C5F83880002205212520C8F83850FEF71A
:1057500033FD2520FEF722FD07B0BDE8F08FDFF80E
:105760003081C4453FD1D3F800C04CF4003CC3F8AD
:1057700000C01B6803F400330593036843F0010382
:105780000360006800F0010005900C208DE8130014
:10579000CDE9032969467046FEF74CF9DFF8E08051
:1057A000364908F1C00840463031C0E90347C8F81F
:1057B0001440C8F81840C8F81C40C8F8204088E8D1
:1057C0004204C8F82440FDF723FF08B1FCF78EFD22
:1057D000C5F83880002205212620C8F83850FEF789
:1057E000EBFC2620B6E7DFF8AC80C445B4D1D3F893
:1057F00000C04CF4802CC3F800C01B6803F4802365
:105800000593036843F0020303600068CDF800B01D
:105810000392CDE9011400F00200CDE9049069463D
:105820001D48FEF707F91549DFF8708048394046F2
:10583000C8F80010C0E90164C0E90347C8F8144083
:10584000C8F81840C8F81C40C8F82040C8F82440E0
:10585000FDF7DEFE08B1FCF749FDC5F83C800022EB
:1058600005212720C8F83850FEF7A6FC272071E74D
:10587000004C004040380240000802407060024086
:10588000280A00200010014000000240B8640240D5
:10589000004400400048004000040240480B002043
:1058A00090F84230202B01D00220704721B11AB16C
:1058B0000023036306F028BB01207047F8B50021E0
:1058C00000912C4988420BD12B48006820B100235D
:1058D0006A462A490FF07AF90122284925483AE018
:1058E0002849274A284C0D6890420FD1012020708A
:1058F00045B100236A46254928460FF067F90FF0A5
:1059000081FC6060012221491D4824E02049884231
:105910001BD12078022602280BD326708DB10023DC
:105920006A461C4928460FF051F90FF06BFC606085
:1059300007E00FF067FC6168401AB0F5FA6F00D914
:10594000267001221349124805E0134988420FD1FD
:10595000012212491048FFF7A3FF0098002807D042
:105960000F494FF080500860BFF34F8FBFF36F8F28
:10597000F8BD00009809002014000020010000205C
:105980000809002018000020C8050020020000209F
:105990005009002003000020E0090020040000203E
:1059A00004ED00E02DE9F843044690F841009846E4
:1059B00016460D46202802D00220BDE8F88385B1A6
:1059C0007EB100206064212084F84100FEF73CF99C
:1059D000A6848146E684A0682027B0F5805F02D0C7
:1059E00003E00120E9E7206910B12E4600250EE012
:1059F00000260CE08021204606F0A1FAA8B9C6B125
:105A000016F8010B21684860E08C401EE084E08CB1
:105A10004B464FF00002CDF800800028EAD14FF04D
:105A20004001204606F08BFA40B184F84170032013
:105A3000C3E735F8020BC0F30800E3E784F84170D0
:105A40000020BAE770B5044690F84100202801D044
:105A5000022070BD49B342B32162A284E2840020D7
:105A60006064212384F84130A56B114BEB63A56B77
:105A7000104B2B64A56B104BEB64A36B186525686A
:105A800013462A1DA06BFDF72DFE21686FF0400024
:105A900008602068143050E8001F41F0800140E8A1
:105AA0000012002AF5D1002070BD012070BD000059
:105AB00083BC0008C5BC000839BC000870477047AB
:105AC0002DE9F05F054600680E46074608F046F9E6
:105AD000C6EB061140074FF007084FF0040905EB2D
